:100000000C94F4000C9411010C9411010C94110146
:100010000C9411010C9411010C9411010C94110118
:100020000C9411010C9411010C9411010C94110108
:100030000C9411010C9411010C9411010C941101F8
:100040000C9411010C9411010C9411010C941101E8
:100050000C9411010C9411010C9411010C941101D8
:100060000C9411010C94110100000000000000002C
:100070000000000000000000000000000000000080
:100080000000000000000000000000000000000070
:100090000000000000000000000000000000000060
:1000A0000000000000000000000000000000000050
:1000B0000000000000000000000000000000000040
:1000C0000000000000000000000000222020550079
:1000D0000057575063672054215063656022000029
:1000E00021112024442052500002720000002100FF
:1000F0007000000010442110755570322270747128
:10010000707474705574407174707175707444407B
:100110007575707574700020200020214212400710
:100120000700124210746020255160257550353546
:100130003061116035553071317071311061556029
:100140005575507222704445205535501111705725
:1001500075507555502555207571106553603535AE
:100160005061743072222055557055522055775089
:10017000552550552220742170622260112440328E
:100180002230250000000070120000065560135553
:10019000300611604655600253604272200256429A
:1001A000113550020220020221153550222240054D
:1001B00075500355500255200355310655640251C0
:1001C000100614302722400555600552200557506F
:1001D00005225005564207417062126022222032E9
:1001E000423003600000000011241FBECFEFD8E0B2
:1001F000DEBFCDBF13E0A0E0B1E0E6EAF1E102C06E
:1002000005900D92A43FB107D9F728E0A4EFB3E021
:1002100001C01D92A53CB207E1F70E9424040C9492
:10022000D1080C94000041E050E064E08BE290E0E3
:100230000E94FD032FEF83EC99E021508040904015
:10024000E1F700C0000040E050E064E08BE290E0A5
:100250000C94FD030C944C010C946E010C94B001B1
:10026000CF93C82FA6EFB7E0ED91FC9111972081B5
:1002700081E090E014960C9002C0880F991F0A94B8
:10028000E2F78095822380830E9473028C2F0E9464
:100290006E02CF910C94860287FD1FC06034E8F493
:1002A000962F969596959695E82FF0E080E8989F82
:1002B000E00DF11D1124EA50FC4F677081E090E0E1
:1002C00001C0880F6A95EAF7442319F09081892BC1
:1002D00003C080959081892380830895CF92DF9217
:1002E000EF92FF920F931F93CF93DF9306EF13E0EC
:1002F000C0EBEE24E394F12C8C2F0E94300180E0BF
:100300000E94300180E10E943001E091F607F091F7
:10031000F7072081C7010090FA0702C0880F991FD4
:100320000A94E2F7822B80830E9473026801D0E076
:10033000F60181916F010E946E02DF5FD038C1F734
:100340000E948602CF5F00581F4FC83BA9F6DF917D
:10035000CF911F910F91FF90EF90DF90CF90089574
:10036000E6EFF3E0119287E0E63FF807D9F708954A
:10037000EF920F931F93E6EFF7E0918380837383EF
:10038000628344833683258310870783E186DB01FC
:100390005C9181E090E09C0101C0220F4A95EAF750
:1003A000252B2C93A781B0854C919C01018402C020
:1003B000220F331F0A94E2F7242B2C93A581B681D8
:1003C0003C91AC01018402C0440F551F0A94E2F72E
:1003D000242F209523232C93AFE3BCE91197F1F749
:1003E00000C00000A581B6812C91018402C0880F55
:1003F000991F0A94E2F7822B8C938EEA0E943001B7
:1004000085ED0E94300180E80E94300188EA0E9458
:1004100030018FE30E94300183ED0E94300180E0C3
:100420000E94300180E40E9430018DE80E9430017A
:1004300084E10E94300180E20E94300180E00E944D
:10044000300181EA0E94300188EC0E9430018AED7F
:100450000E94300182E10E94300181E80E94300157
:100460008FEC0E94300189ED0E94300181EF0E94E3
:1004700030018BED0E94300180E40E94300184EA5B
:100480000E94300186EA0E9430018FEA0E9430010A
:100490000E94B0011F910F91EF900C946E0124B156
:1004A000286224B92498229AFB01508121E030E08F
:1004B000042E01C0220F0A94EAF7352F322B308325
:1004C000FC013081232B2083E0E0F8E091838083DE
:1004D00073836283448381E58CBD08958EBD0DB422
:1004E00007FEFDCF0895A0E0B8E0ED91FC911197D3
:1004F000208181E090E014960C9002C0880F991F33
:100500000A94E2F78095822380830895A0E0B8E002
:10051000ED91FC911197208181E090E014960C9070
:1005200002C0880F991F0A94E2F7822B80830895F6
:100530006F927F928F929F92AF92BF92CF92DF92F3
:10054000EF92FF920F931F93CF93DF9300D01F92F0
:10055000CDB7DEB75B014A0190E0FC01EE0FFF1F53
:100560008E0F9F1FFC01E859FF4FE491E983FC01C6
:10057000E759FF4FE491EA83FC01E659FF4F84916C
:100580008B83E12CF12CF701F595E79581E090E064
:100590008C0F9D1FE80FF91F0081E0FE02950F7080
:1005A000C12CD12C10E034016E0C7F1CA8010C2C46
:1005B00002C0559547950A94E2F741705527B3015B
:1005C000C5018C0D9D1D0E942A019FEFC91AD90AF1
:1005D00084E0C816D10451F79FEFE91AF90A86E0C2
:1005E000E816F10481F60F900F900F90DF91CF91F4
:1005F0001F910F91FF90EF90DF90CF90BF90AF9041
:100600009F908F907F906F900895CF93DF9300D04D
:100610001F92CDB7DEB790E0FC01EE0FFF1F8E0FEB
:100620009F1FFC01E859FF4FE491E983FC01E75962
:10063000FF4FE491EA83FC01E659FF4F84918B83DD
:1006400040E050E080E090E0FA01F595E79521E088
:1006500030E02C0F3D1FE20FF31F208140FF229559
:100660002F7060E070E030E0A1E0B0E0F901062E0C
:1006700002C0F595E7950A94E2F7E0FD02C0A0E01C
:10068000B0E08A0F9B1F6F5F7F4F6430710561F789
:100690004F5F5F4F46305105B9F60F900F900F90A6
:1006A000DF91CF9108950F931F93CF93DF93FC01B8
:1006B000D081FB01C0818D2F0E9405038C018C2FFE
:1006C0000E940503081719075CF0801791075CF07A
:1006D0008C2FCC0F990B8D1B9109D7FD939505C0DD
:1006E0008FEF9FEF02C081E090E0DF91CF911F91EB
:1006F0000F910895CF93DF93C5E0D8E0FE0180E02D
:1007000081938F5F8038E1F723E533E041E050E0EB
:1007100060E870E085E098E00E94E206E5E8F8E035
:100720008991819388E0CD32D807D1F7ECE6F8E0E3
:10073000ADEAB8E081918D9388E0E538F807D1F70C
:1007400081E090E09093F5038093F403DF91CF91E3
:100750000895AF92BF92CF92DF92EF92FF920F93E4
:100760001F93CF93DF93EC017B015A0169018091C4
:10077000F4039091F503892B11F40E947A03B501DB
:100780006C0D7D1D600F711F072E000C880B990BDF
:100790000E94A80520E030E040E450E40E94FE04FE
:1007A00020E030E04FE753E40E94FE0420E030E018
:1007B0004CE752E40E9434060E94700577FF02C0A5
:1007C00060E070E08B010B57174FA701BE01F801E5
:1007D00080810E949802BE016C5F7F4FA701F801E3
:1007E0008081DF91CF911F910F91FF90EF90DF906B
:1007F000CF90BF90AF900C949802FC018081413063
:10080000510539F401C0440F6A95EAF7482B40833B
:10081000089521E030E001C0220F6A95EAF72095A3
:10082000282320830895611571058105910559F0EC
:10083000EFE9FFE03197F1F700C000006150710966
:1008400081099109F0CF08955F926F927F928F9204
:100850009F92AF92BF92CF92DF92EF92FF920F934F
:100860001F93CF93DF9347E06AE270E08BE290E062
:100870000E944F02EE24E39404E210E025E230E00F
:1008800040E064E270E085E290E00E94B8010E94DE
:100890007A03C0E0D0E041E050E0BE01CE010E940A
:1008A0002A012196C034D105B1F70E942C01A2E0A3
:1008B000CA2EA1E0DA2E80E090E060E070E0E12C4A
:1008C000F12CC0E0D0E0B6E05B2EF60164903196EA
:1008D000E491812C912C712CAE2EB12C86149704AE
:1008E000DCF501966A0D7B1D8430910589F5072E94
:1008F000000C880B990B0E94A80520E030E040E82E
:100900005EE30E9434060E947705462F50E05E9C0D
:10091000B0015F9C700D11248A019A01CE01E3E0C1
:10092000880F991FEA95E1F70E94A9032196C1312A
:10093000D10554F0FFEFEF1AFF0A80E090E060E08D
:1009400070E0C0E0D0E004C080E090E060E070E0E3
:100950002FEF821A920AC2CFE2EFCE16E3E0DE0654
:10096000C9F18430910591F5072E000C880B990B85
:100970000E94A80520E030E040E85EE30E943406D3
:100980000E947705262F30E05E9CB0015F9C700DC1
:100990001124890140E050E0CE01F3E0880F991F57
:1009A000FA95E1F70E94A9032196C131D10554F0CF
:1009B0002FEFE21AF20A80E090E060E070E0C0E021
:1009C000D0E004C080E090E060E070E0E2E0CE0EB5
:1009D000D11C7BCF0E942C0180E090E0DF91CF9171
:1009E0001F910F91FF90EF90DF90CF90BF90AF904D
:1009F0009F908F907F906F905F9008950E94120556
:100A00000C94FA050E94F30558F00E94EC0540F0A2
:100A100029F45F3F29F00C94E30551110C942E0644
:100A20000C94E9050E940B0668F39923B1F3552352
:100A300091F3951B550BBB27AA27621773078407F1
:100A400038F09F5F5F4F220F331F441FAA1FA9F387
:100A500035D00E2E3AF0E0E832D091505040E69575
:100A6000001CCAF72BD0FE2F29D0660F771F881FD6
:100A7000BB1F261737074807AB07B0E809F0BB0BC9
:100A8000802DBF01FF2793585F4F3AF09E3F5105DD
:100A900078F00C94E3050C942E065F3FE4F3983E47
:100AA000D4F3869577956795B795F7959F5FC9F7C6
:100AB000880F911D9695879597F90895E1E0660F47
:100AC000771F881FBB1F621773078407BA0720F0C0
:100AD000621B730B840BBA0BEE1F88F7E095089529
:100AE0000E9477056894B1110C942E0608950E9417
:100AF000130688F09F5798F0B92F9927B751B0F097
:100B0000E1F0660F771F881F991F1AF0BA95C9F791
:100B100014C0B13091F00E942D06B1E008950C94FC
:100B20002D06672F782F8827B85F39F0B93FCCF3AF
:100B3000869577956795B395D9F73EF4909580950E
:100B4000709561957F4F8F4F9F4F0895E89409C02E
:100B500097FB3EF490958095709561957F4F8F4FF0
:100B60009F4F9923A9F0F92F96E9BB279395F69506
:100B7000879577956795B795F111F8CFFAF4BB0F84
:100B800011F460FF1BC06F5F7F4F8F4F9F4F16C0E8
:100B9000882311F096E911C0772321F09EE8872F72
:100BA000762F05C0662371F096E8862F70E060E02E
:100BB0002AF09A95660F771F881FDAF7880F9695A7
:100BC000879597F9089597F99F6780E870E060E04E
:100BD00008959FEF80EC089500240A9416161706D6
:100BE00018060906089500240A941216130614061E
:100BF00005060895092E0394000C11F4882352F081
:100C0000BB0F40F4BF2B11F460FF04C06F5F7F4F38
:100C10008F4F9F4F089557FD9058440F551F59F01F
:100C20005F3F71F04795880F97FB991F61F09F3FD9
:100C300079F087950895121613061406551FF2CF02
:100C40004695F1DF08C0161617061806991FF1CF52
:100C500086957105610508940895E894BB27662779
:100C60007727CB0197F908950E9447060C94FA055F
:100C70000E94EC0538F00E94F30520F0952311F056
:100C80000C94E3050C94E90511240C942E060E94A3
:100C90000B0670F3959FC1F3950F50E0551F629FAF
:100CA000F001729FBB27F00DB11D639FAA27F00DC5
:100CB000B11DAA1F649F6627B00DA11D661F829FEC
:100CC0002227B00DA11D621F739FB00DA11D621FD1
:100CD000839FA00D611D221F749F3327A00D611DEE
:100CE000231F849F600D211D822F762F6A2F1124D0
:100CF0009F5750409AF0F1F088234AF0EE0FFF1F03
:100D0000BB1F661F771F881F91505040A9F79E3F59
:100D1000510580F00C94E3050C942E065F3FE4F33C
:100D2000983ED4F3869577956795B795F795E795AF
:100D30009F5FC1F7FE2B880F911D9695879597F9B8
:100D40000895DC01FB018C9190819D93819341502A
:100D5000510914161506BCF30895A0E0B0E0E3EBCA
:100D6000F6E00C94A4087C016B01D42FC52F8901F7
:100D7000F90109956D2F7C2F97FF10C0C601F8016E
:100D8000099597FF02C0C60118C06D2F7C2FC701BF
:100D9000F801099597FD0FC0C7010FC0C601F80102
:100DA0000995181619067CF36D2F7C2FC701F801E1
:100DB000099597FDF1CF8D2F9C2FCDB7DEB7E8E0D9
:100DC0000C94C008AAE0B0E0E8EEF6E00C949A08B3
:100DD0008C017B015A874987690129853A85200F53
:100DE000311F3A83298337E0E316F10470F56980F7
:100DF0007A8049855A85E49E5001E59EB00CF49EA8
:100E0000B00C1124A00EB11E6A147B0408F07AC144
:100E100073010E151F0528F089859A85680E791EC5
:100E2000F3CF4701E985FA858E1A9F0AB701C401FD
:100E3000F6010995181619067CF749855A85B401FB
:100E4000C7010E94A1067401E4CFC701969587955A
:100E500029853A85829F5001839FB00C929FB00CE8
:100E60001124A00EB11EA701415051095C834B8390
:100E700057E0E516F10409F44CC08B819C81829FF8
:100E80003001839F700C929F700C1124600E711EB4
:100E900099E2E916F104A8F1C70143E09695879518
:100EA0004A95E1F7829F4001839F900C929F900C9E
:100EB00011241401220C331CA801420D531DB8014A
:100EC000680D791D9601C8010E94AD062C01A5018F
:100ED000480D591D9194819491089601B501C50161
:100EE000880D991D0E94AD065C01B301680D791D46
:100EF0009601A301C301821993090E94AD063C012A
:100F000001C028019601A301B501C2010E94AD06EE
:100F10005C0149855A85B501C8010E94A106698016
:100F20007A802B813C8149855A85249FF001259F39
:100F3000F00D349FF00D1124FE83ED835F01A00EB0
:100F4000B11E460D571D5C834B83250113011A8288
:100F500019828B809C8089859A85881A990AA814A1
:100F6000B90408F450C0B801C401F6010995181677
:100F70001906C4F1892B71F449855A85B401C10160
:100F80000E94A10689859A85280E391EE1E0F0E0CD
:100F9000FA83E9832B813C8149855A85240F351FCB
:100FA0003C832B83D6CFB801C501F6010995950185
:100FB00049855A85241B350B38872F8397FD16C02A
:100FC000892B71F449855A85B201C5010E94A10699
:100FD00029853A85421A530A41E050E05A834983F1
:100FE000AF80B884A814B904F0F60DC049855A85BD
:100FF000B501C4010E94A106AF80B88441E050E071
:101000005A834983C7CF89819A81892B09F44FC0BC
:101010006D807E8029853A85620E731E600E711E7A
:101020007401E218F308A101401B510BE416F50608
:101030000CF4A7011416150634F4B401641B750BE7
:10104000C8010E94A106A2014A195B095A01A30125
:101050004419550989859A85481B590BA416B5066C
:1010600008F4A5011416150634F4B301641B750BBE
:10107000C4010E94A106E985FA85EE15FF0548F432
:10108000C701BF010E9486089601AF01C8010E94F6
:10109000E20629853A852A153B05A0F583010A1940
:1010A0001B09C501B9010E9486087B0196CEE9851E
:1010B000FA85EE9E5001EF9EB00CFE9EB00C1124FE
:1010C000A00EB11E6A147B04E8F473010E151F050F
:1010D00028F089859A85680E791EF4CF4701E98545
:1010E000FA858E1A9F0AB701C401F60109951816F0
:1010F00019067CF749855A85B401C7010E94A106EB
:101100007401E4CF2A96E2E10C94B608AA1BBB1B3B
:1011100051E107C0AA1FBB1FA617B70710F0A61BF7
:10112000B70B881F991F5A95A9F780959095BC0118
:10113000CD0108952F923F924F925F926F927F92CE
:101140008F929F92AF92BF92CF92DF92EF92FF92D7
:101150000F931F93CF93DF93CDB7DEB7CA1BDB0B83
:101160000FB6F894DEBF0FBECDBF09942A88398828
:1011700048885F846E847D848C849B84AA84B9842F
:10118000C884DF80EE80FD800C811B81AA81B9813B
:10119000CE0FD11D0FB6F894DEBF0FBECDBFED014F
:0611A0000895F894FFCF52
:1011A6002B00147902502B6E147902382B751478A3
:1011B60002291975116F14860106012A19761187FD
:1011C6001497010A01370A7D0257057E085F0191CF
:1011D600026A0F841486010A013E047E096C049596
:1011E6000663037A0B5E039A038909840B50010890
:1011F60001370A74073F06680A800A860E88068049
:1012060001050245098A0247036B0C83057D01909F
:101216000AB614930102076A035A015A023503708B
:101226000B7605BF019B0AC40F7B047D016A01048E
:10123600028905810258017316400BBD0C770756CB
:1012460001600103029F0D5E0191015A1B8009880E
:101256000A7201590109019E0171064B0253226966
:101266000F960493014F011201812B4F0F92046DCB
:10127600023203640149016F0D450150188107864A
:101286000C82022503610356014F0C161961138B5C
:1012960002170155027C03600D08012A188B0B9476
:1012A600033D0477015D0204014E028D02460F06DE
:1012B600188A1296015102000367061C01320A566B
:1012C6000174179B129301480200036D05220C2737
:1012D6000167178B128E013F020002700137091356
:1012E6000856016217841281013402000281012A24
:1012F6001107176F1261012802000292051D064FA1
:10130600070C177F1263021B012502840529026C54
:1013160002350273061A195B116E01850212012F3E
:10132600027D01480A0105351A7D116D0188020CFE
:101336000131027701500615046503460158028102
:10134600194A12750209034F027D073302870349C2
:1013560003750118014C1678126E0208024D0167DA
:10136600038B0644052E027B0154010C016317868C
:10137600126E0208022C016C038F015502260869C1
:10138600026F022D1784125F0206032F0383014D9D
:1013960002290164063A015A027F011B01580C908A
:1013A6000B77125803020351018D01600333075175
:1013B600036A014E187A1156013303050466033297
:1013C60009261B8D115C032C055F0327023101558D
:1013D600048602101C66115E063A043A0A61014F41
:1013E6001B7C125F04210152042C0A65013B1B6120
:1013F60011640A35026208411C3D066A0A840158D6
:1014060007200D4D044018680972074B0833025037
:101416000B3005441766106B08230D4E064C156BF2
:1014260027600524147C0B5E0368013D09130A69D5
:101436000A4A015E148C0763048A035B0F2E057B40
:101446000A48014A137E0D53013E02111C2F024623
:1014560013830D5F014E02241C31024613880E6071
:10146600132E0B4C023C127E0C54024C021C083804
:101476001650136B0E6A201513560D6C014110158C
:10148600076E0939014112690D62142E037B01555D
:041496000A2F115FA9
:00000001FF
