:100000000C94F4000C9411010C9411010C94110146
:100010000C9411010C9411010C9411010C94110118
:100020000C9411010C9411010C9411010C94110108
:100030000C9411010C9411010C9411010C941101F8
:100040000C9411010C9411010C9411010C941101E8
:100050000C9411010C9411010C9411010C941101D8
:100060000C9411010C94110100000000000000002C
:100070000000000000000000000000000000000080
:100080000000000000000000000000000000000070
:100090000000000000000000000000000000000060
:1000A0000000000000000000000000000000000050
:1000B0000000000000000000000000000000000040
:1000C0000000000000000000000000222020550079
:1000D0000057575063672054215063656022000029
:1000E00021112024442052500002720000002100FF
:1000F0007000000010442110755570322270747128
:10010000707474705574407174707175707444407B
:100110007575707574700020200020214212400710
:100120000700124210746020255160257550353546
:100130003061116035553071317071311061556029
:100140005575507222704445205535501111705725
:1001500075507555502555207571106553603535AE
:100160005061743072222055557055522055775089
:10017000552550552220742170622260112440328E
:100180002230250000000070120000065560135553
:10019000300611604655600253604272200256429A
:1001A000113550020220020221153550222240054D
:1001B00075500355500255200355310655640251C0
:1001C000100614302722400555600552200557506F
:1001D00005225005564207417062126022222032E9
:1001E000423003600000000011241FBECFEFD8E0B2
:1001F000DEBFCDBF11E0A0E0B1E0EAE4F0E102C073
:1002000005900D92A230B107D9F725E0A2E0B1E048
:1002100001C01D92A333B207E1F70E9401040C94C0
:1002200023080C9400000C9435010C9457010C9495
:100230009901CF93C82FA4E0B5E0ED91FC911197FF
:10024000208181E090E014960C9002C0880F991FE5
:100250000A94E2F78095822380830E945C028C2FAF
:100260000E945702CF910C946F0287FD1FC060342B
:10027000E8F4962F969596959695E82FF0E080E80D
:10028000989FE00DF11D1124EC5FFE4F677081E037
:1002900090E001C0880F6A95EAF7442319F0908135
:1002A000892B03C080959081892380830895CF9204
:1002B000DF92EF92FF920F931F93CF93DF9304E0AF
:1002C00011E0C0EBEE24E394F12C8C2F0E94190175
:1002D00080E00E94190180E10E941901E09104056B
:1002E000F09105052081C7010090080502C0880F24
:1002F000991F0A94E2F7822B80830E945C026801B6
:10030000D0E0F60181916F010E945702DF5FD03883
:10031000C1F70E946F02CF5F00581F4FC83BA9F67C
:10032000DF91CF911F910F91FF90EF90DF90CF90D1
:100330000895E4E0F1E0119285E0E430F807D9F7A0
:100340000895EF920F931F93E4E0F5E0918380838B
:100350007383628344833683258310870783E18612
:10036000DB015C9181E090E09C0101C0220F4A9585
:10037000EAF7252B2C93A781B0854C919C01018431
:1003800002C0220F331F0A94E2F7242B2C93A5817D
:10039000B6813C91AC01018402C0440F551F0A9400
:1003A000E2F7242F209523232C93AFE3BCE9119788
:1003B000F1F700C00000A581B6812C91018402C034
:1003C000880F991F0A94E2F7822B8C938EEA0E9481
:1003D000190185ED0E94190180E80E94190188EA3F
:1003E0000E9419018FE30E94190183ED0E941901F7
:1003F00080E00E94190180E40E9419018DE80E94AA
:10040000190184E10E94190180E20E94190180E033
:100410000E94190181EA0E94190188EC0E941901C9
:100420008AED0E94190182E10E94190181E80E946F
:1004300019018FEC0E94190189ED0E94190181EFC9
:100440000E9419018BED0E94190180E40E9419019C
:1004500084EA0E94190186EA0E9419018FEA0E942B
:1004600019010E9499011F910F91EF900C9457016F
:1004700024B1286224B92498229AFB01508121E0FA
:1004800030E0042E01C0220F0A94EAF7352F322BF8
:100490003083FC013081232B2083EEE0F5E0918353
:1004A000808373836283448381E58CBD08958EBD10
:1004B0000DB407FEFDCF0895AEE0B5E0ED91FC91DF
:1004C0001197208181E090E014960C9002C0880F73
:1004D000991F0A94E2F78095822380830895AEE005
:1004E000B5E0ED91FC911197208181E090E01496A8
:1004F0000C9002C0880F991F0A94E2F7822B808328
:1005000008956F927F928F929F92AF92BF92CF92F7
:10051000DF92EF92FF920F931F93CF93DF9300D060
:100520001F92CDB7DEB75B014A0190E0FC01EE0FF0
:10053000FF1F8E0F9F1FFC01E859FF4FE491E983D5
:10054000FC01E759FF4FE491EA83FC01E659FF4FB4
:1005500084918B83E12CF12CF701F595E79581E0EF
:1005600090E08C0F9D1FE80FF91F0081E0FE0295BF
:100570000F70C12CD12C10E034016E0C7F1CA8012F
:100580000C2C02C0559547950A94E2F74170552707
:10059000B301C5018C0D9D1D0E9413019FEFC91A67
:1005A000D90A84E0C816D10451F79FEFE91AF90A75
:1005B00086E0E816F10481F60F900F900F90DF911E
:1005C000CF911F910F91FF90EF90DF90CF90BF9050
:1005D000AF909F908F907F906F900895CF93DF930F
:1005E00000D01F92CDB7DEB790E0FC01EE0FFF1FE9
:1005F0008E0F9F1FFC01E859FF4FE491E983FC0136
:10060000E759FF4FE491EA83FC01E659FF4F8491DB
:100610008B8340E050E080E090E0FA01F595E795AB
:1006200021E030E02C0F3D1FE20FF31F208140FF3F
:1006300022952F7060E070E030E0F901062E02C0D4
:10064000F595E7950A94E2F7E170FF278E0F9F1F5B
:100650006F5F7F4F6430710581F74F5F5F4F4630AA
:100660005105D9F60F900F900F90DF91CF9108951B
:100670001F93CF93DF93FB011081FC0180810E94C7
:10068000EE02EC01812F0E94EE029E01281B390B25
:10069000C901DF91CF911F9108950F931F93CF93BD
:1006A000DF93CDB7DEB7C058D1090FB6F894DEBFDF
:1006B0000FBECDBF8E010F5F1F4FF80180E0819309
:1006C0008F5F8038E1F728E333E041E050E060E8F5
:1006D00070E0C8010E943406E3E1F5E0D8018C9196
:1006E00081930C5F1F4FB5E0E333FB07B9F781E05F
:1006F00090E09093030180930201C058DF4F0FB642
:10070000F894DEBF0FBECDBFDF91CF911F910F9147
:100710000895AF92BF92CF92DF92EF92FF920F9324
:100720001F93CF93DF93EC017B015A016901809104
:10073000020190910301892B11F40E944D03B50130
:100740006C0D7D1D600F711F072E000C880B990B1F
:100750000E94FA0420E030E040E450E40E9450049B
:1007600020E030E04FE753E40E94500420E030E006
:1007700048EF51E40E9486050E94C20477FD06C03E
:10078000603271052CF06FE170E002C060E070E053
:10079000FB01ED5EFA4FA701BE018081DF91CF9191
:1007A0001F910F91FF90EF90DF90CF90BF90AF908F
:1007B0000C948102FC0180814130510539F401C063
:1007C000440F6A95EAF7482B4083089521E030E012
:1007D00001C0220F6A95EAF7209528232083089507
:1007E000611571058105910559F0EFE9FFE0319739
:1007F000F1F700C000006150710981099109F0CF43
:10080000089547E06AE270E08BE290E00E943802CF
:10081000EE24E39404E210E025E230E040E064E2FC
:1008200070E085E290E00E94A101E12C80E2F82EC8
:10083000C12CD12CC0E0D0E0CF37D10534F086E018
:10084000C80ED11CC0E0D0E001C02496BE010D2E20
:10085000000C880B990B0E94FA0420E030E040E085
:100860005CE30E94860520E030E04FE753E40E94FD
:1008700086050E94C2048B0124E630E0AB01B6017C
:10088000CE010E94890391E0E91AF108A9F60E94BD
:1008900015018FE39CE90197F1F700C00000F9CF43
:1008A0000E9464040C944C050E94450558F00E9477
:1008B0003E0540F029F45F3F29F00C9435055111B5
:1008C0000C9480050C943B050E945D0568F3992308
:1008D000B1F3552391F3951B550BBB27AA2762173C
:1008E0007307840738F09F5F5F4F220F331F441F49
:1008F000AA1FA9F335D00E2E3AF0E0E832D091507D
:100900005040E695001CCAF72BD0FE2F29D0660F69
:10091000771F881FBB1F261737074807AB07B0E8AC
:1009200009F0BB0B802DBF01FF2793585F4F3AF0B2
:100930009E3F510578F00C9435050C9480055F3F7F
:10094000E4F3983ED4F3869577956795B795F79538
:100950009F5FC9F7880F911D9695879597F9089520
:10096000E1E0660F771F881FBB1F621773078407BC
:10097000BA0720F0621B730B840BBA0BEE1F88F7CB
:10098000E09508950E94C9046894B1110C94800503
:1009900008950E94650588F09F5798F0B92F992710
:1009A000B751B0F0E1F0660F771F881F991F1AF05A
:1009B000BA95C9F714C0B13091F00E947F05B1E03B
:1009C00008950C947F05672F782F8827B85F39F03A
:1009D000B93FCCF3869577956795B395D9F73EF4F3
:1009E00090958095709561957F4F8F4F9F4F08959B
:1009F000E89409C097FB3EF49095809570956195B9
:100A00007F4F8F4F9F4F9923A9F0F92F96E9BB276E
:100A10009395F695879577956795B795F111F8CFEA
:100A2000FAF4BB0F11F460FF1BC06F5F7F4F8F4F55
:100A30009F4F16C0882311F096E911C0772321F04B
:100A40009EE8872F762F05C0662371F096E8862FE3
:100A500070E060E02AF09A95660F771F881FDAF73A
:100A6000880F9695879597F9089597F99F6780E87D
:100A700070E060E008959FEF80EC089500240A94F0
:100A80001616170618060906089500240A94121669
:100A90001306140605060895092E0394000C11F49C
:100AA000882352F0BB0F40F4BF2B11F460FF04C049
:100AB0006F5F7F4F8F4F9F4F089557FD9058440FA2
:100AC000551F59F05F3F71F04795880F97FB991FAD
:100AD00061F09F3F79F0879508951216130614066A
:100AE000551FF2CF4695F1DF08C0161617061806F7
:100AF000991FF1CF86957105610508940895E894D2
:100B0000BB2766277727CB0197F908950E9499059F
:100B10000C944C050E943E0538F00E94450520F0DB
:100B2000952311F00C9435050C943B0511240C947D
:100B300080050E945D0570F3959FC1F3950F50E00D
:100B4000551F629FF001729FBB27F00DB11D639F7F
:100B5000AA27F00DB11DAA1F649F6627B00DA11D25
:100B6000661F829F2227B00DA11D621F739FB00DCB
:100B7000A11D621F839FA00D611D221F749F33273B
:100B8000A00D611D231F849F600D211D822F762FD4
:100B90006A2F11249F5750409AF0F1F088234AF0B1
:100BA000EE0FFF1FBB1F661F771F881F915050401D
:100BB000A9F79E3F510580F00C9435050C948005F3
:100BC0005F3FE4F3983ED4F3869577956795B795A4
:100BD000F795E7959F5FC1F7FE2B880F911D9695BE
:100BE000879597F90895DC01FB018C9190819D9385
:100BF00081934150510914161506BCF30895A0E0E5
:100C0000B0E0E5E0F6E00C94F6077C016B01D42F30
:100C1000C52F8901F90109956D2F7C2F97FF10C011
:100C2000C601F801099597FF02C0C60118C06D2FD3
:100C30007C2FC701F801099597FD0FC0C7010FC0B0
:100C4000C601F8010995181619067CF36D2F7C2F43
:100C5000C701F801099597FDF1CF8D2F9C2FCDB7D6
:100C6000DEB7E8E00C941208AAE0B0E0EAE3F6E0B0
:100C70000C94EC078C017B015A874987690129850F
:100C80003A85200F311F3A83298337E0E316F104B8
:100C900070F569807A8049855A85E49E5001E59E09
:100CA000B00CF49EB00C1124A00EB11E6A147B048B
:100CB00008F07AC173010E151F0528F089859A8501
:100CC000680E791EF3CF4701E985FA858E1A9F0ACF
:100CD000B701C401F6010995181619067CF7498574
:100CE0005A85B401C7010E94F3057401E4CFC7011E
:100CF0009695879529853A85829F5001839FB00CF0
:100D0000929FB00C1124A00EB11EA70141505109B1
:100D10005C834B8357E0E516F10409F44CC08B81EA
:100D20009C81829F3001839F700C929F700C1124D4
:100D3000600E711E99E2E916F104A8F1C70143E0C3
:100D4000969587954A95E1F7829F4001839F900C85
:100D5000929F900C11241401220C331CA801420D07
:100D6000531DB801680D791D9601C8010E94FF0549
:100D70002C01A501480D591D91948194910896016B
:100D8000B501C501880D991D0E94FF055C01B301E5
:100D9000680D791D9601A301C301821993090E9470
:100DA000FF053C0101C028019601A301B501C20164
:100DB0000E94FF055C0149855A85B501C8010E9462
:100DC000F30569807A802B813C8149855A85249F6F
:100DD000F001259FF00D349FF00D1124FE83ED836B
:100DE0005F01A00EB11E460D571D5C834B8325018C
:100DF00013011A8219828B809C8089859A85881AB2
:100E0000990AA814B90408F450C0B801C401F60145
:100E1000099518161906C4F1892B71F449855A856C
:100E2000B401C1010E94F30589859A85280E391EF7
:100E3000E1E0F0E0FA83E9832B813C8149855A8522
:100E4000240F351F3C832B83D6CFB801C501F60193
:100E50000995950149855A85241B350B38872F83C1
:100E600097FD16C0892B71F449855A85B201C501D9
:100E70000E94F30529853A85421A530A41E050E061
:100E80005A834983AF80B884A814B904F0F60DC022
:100E900049855A85B501C4010E94F305AF80B88425
:100EA00041E050E05A834983C7CF89819A81892BD9
:100EB00009F44FC06D807E8029853A85620E731ECD
:100EC000600E711E7401E218F308A101401B510B62
:100ED000E416F5060CF4A7011416150634F4B40153
:100EE000641B750BC8010E94F305A2014A195B0936
:100EF0005A01A3014419550989859A85481B590B44
:100F0000A416B50608F4A5011416150634F4B301A9
:100F1000641B750BC4010E94F305E985FA85EE1583
:100F2000FF0548F4C701BF010E94D8079601AF0131
:100F3000C8010E94340629853A852A153B05A0F58B
:100F400083010A191B09C501B9010E94D8077B0159
:100F500096CEE985FA85EE9E5001EF9EB00CFE9E7E
:100F6000B00C1124A00EB11E6A147B04E8F47301C6
:100F70000E151F0528F089859A85680E791EF4CF15
:100F80004701E985FA858E1A9F0AB701C401F60167
:100F90000995181619067CF749855A85B401C701C9
:100FA0000E94F3057401E4CF2A96E2E10C9408084C
:100FB000AA1BBB1B51E107C0AA1FBB1FA617B7077F
:100FC00010F0A61BB70B881F991F5A95A9F780959B
:100FD0009095BC01CD0108952F923F924F925F9260
:100FE0006F927F928F929F92AF92BF92CF92DF9239
:100FF000EF92FF920F931F93CF93DF93CDB7DEB79E
:10100000CA1BDB0B0FB6F894DEBF0FBECDBF099431
:101010002A88398848885F846E847D848C849B8488
:10102000AA84B984C884DF80EE80FD800C811B8196
:10103000AA81B981CE0FD11D0FB6F894DEBF0FBEC5
:0A104000CDBFED010895F894FFCF35
:02104A002B0079
:00000001FF
