:100000000C94F4000C9411010C9411010C94110146
:100010000C9411010C9411010C9411010C94110118
:100020000C9411010C9411010C9411010C94110108
:100030000C9411010C9411010C9411010C941101F8
:100040000C9411010C9411010C9411010C941101E8
:100050000C9411010C9411010C9411010C941101D8
:100060000C9411010C94110100000000000000002C
:100070000000000000000000000000000000000080
:100080000000000000000000000000000000000070
:100090000000000000000000000000000000000060
:1000A0000000000000000000000000000000000050
:1000B0000000000000000000000000000000000040
:1000C0000000000000000000000000222020550079
:1000D0000057575063672054215063656022000029
:1000E00021112024442052500002720000002100FF
:1000F0007000000010442110755570322270747128
:10010000707474705574407174707175707444407B
:100110007575707574700020200020214212400710
:100120000700124210746020255160257550353546
:100130003061116035553071317071311061556029
:100140005575507222704445205535501111705725
:1001500075507555502555207571106553603535AE
:100160005061743072222055557055522055775089
:10017000552550552220742170622260112440328E
:100180002230250000000070120000065560135553
:10019000300611604655600253604272200256429A
:1001A000113550020220020221153550222240054D
:1001B00075500355500255200355310655640251C0
:1001C000100614302722400555600552200557506F
:1001D00005225005564207417062126022222032E9
:1001E000423003600000000011241FBECFEFD8E0B2
:1001F000DEBFCDBF11E0A0E0B1E0E0EFFCE102C066
:1002000005900D92A230B107D9F727E0A2E0B1E046
:1002100001C01D92A53DB207E1F70E9491070C9421
:10022000760E0C9400000C9435010C9457010C943C
:100230009901CF93C82FA2E0B1E0ED91FC91119705
:10024000208181E090E014960C9002C0880F991FE5
:100250000A94E2F78095822380830E945C028C2FAF
:100260000E945702CF910C946F0287FD1FC060342B
:10027000E8F4962F969596959695E82FF0E080E80D
:10028000989FE00DF11D1124E45FFE4F677081E03F
:1002900090E001C0880F6A95EAF7442319F0908135
:1002A000892B03C080959081892380830895CF9204
:1002B000DF92EF92FF920F931F93CF93DF930CE0A7
:1002C00011E0C0EBEE24E394F12C8C2F0E94190175
:1002D00080E00E94190180E10E941901E091020171
:1002E000F09103012081C7010090060102C0880F30
:1002F000991F0A94E2F7822B80830E945C026801B6
:10030000D0E0F60181916F010E945702DF5FD03883
:10031000C1F70E946F02CF5F00581F4FC83BA9F67C
:10032000DF91CF911F910F91FF90EF90DF90CF90D1
:100330000895ECE0F1E0119285E0EC30F807D9F790
:100340000895EF920F931F93E2E0F1E09183808391
:100350007383628344833683258310870783E18612
:10036000DB015C9181E090E09C0101C0220F4A9585
:10037000EAF7252B2C93A781B0854C919C01018431
:1003800002C0220F331F0A94E2F7242B2C93A5817D
:10039000B6813C91AC01018402C0440F551F0A9400
:1003A000E2F7242F209523232C93AFE3BCE9119788
:1003B000F1F700C00000A581B6812C91018402C034
:1003C000880F991F0A94E2F7822B8C938EEA0E9481
:1003D000190185ED0E94190180E80E94190188EA3F
:1003E0000E9419018FE30E94190183ED0E941901F7
:1003F00080E00E94190180E40E9419018DE80E94AA
:10040000190184E10E94190180E20E94190180E033
:100410000E94190181EA0E94190188EC0E941901C9
:100420008AED0E94190182E10E94190181E80E946F
:1004300019018FEC0E94190189ED0E94190181EFC9
:100440000E9419018BED0E94190180E40E9419019C
:1004500084EA0E94190186EA0E9419018FEA0E942B
:1004600019010E9499011F910F91EF900C9457016F
:1004700024B1286224B92498229AFB01508121E0FA
:1004800030E0042E01C0220F0A94EAF7352F322BF8
:100490003083FC013081232B2083ECE0F5E0918355
:1004A000808373836283448381E58CBD08958EBD10
:1004B0000DB407FEFDCF0895ACE0B5E0ED91FC91E1
:1004C0001197208181E090E014960C9002C0880F73
:1004D000991F0A94E2F78095822380830895ACE007
:1004E000B5E0ED91FC911197208181E090E01496A8
:1004F0000C9002C0880F991F0A94E2F7822B808328
:1005000008956F927F928F929F92AF92BF92CF92F7
:10051000DF92EF92FF920F931F93CF93DF9300D060
:100520001F92CDB7DEB75B014A0190E0FC01EE0FF0
:10053000FF1F8E0F9F1FFC01E859FF4FE491E983D5
:10054000FC01E759FF4FE491EA83FC01E659FF4FB4
:1005500084918B83E12CF12CF701F595E79581E0EF
:1005600090E08C0F9D1FE80FF91F0081E0FE0295BF
:100570000F70C12CD12C10E034016E0C7F1CA8012F
:100580000C2C02C0559547950A94E2F74170552707
:10059000B301C5018C0D9D1D0E9413019FEFC91A67
:1005A000D90A84E0C816D10451F79FEFE91AF90A75
:1005B00086E0E816F10481F60F900F900F90DF911E
:1005C000CF911F910F91FF90EF90DF90CF90BF9050
:1005D000AF909F908F907F906F900895CF93DF930F
:1005E00000D01F92CDB7DEB790E0FC01EE0FFF1FE9
:1005F0008E0F9F1FFC01E859FF4FE491E983FC0136
:10060000E759FF4FE491EA83FC01E659FF4F8491DB
:100610008B8340E050E080E090E0FA01F595E795AB
:1006200021E030E02C0F3D1FE20FF31F208140FF3F
:1006300022952F7060E070E030E0A1E0B0E0F901B9
:10064000062E02C0F595E7950A94E2F7E0FD02C098
:10065000A0E0B0E08A0F9B1F6F5F7F4F6430710591
:1006600061F74F5F5F4F46305105B9F60F900F901D
:100670000F90DF91CF9108950F931F93CF93DF9346
:10068000FC01D081FB01C0818D2F0E94EE028C0104
:100690008C2F0E94EE02081719075CF08017910753
:1006A0005CF08C2FCC0F990B8D1B9109D7FD939586
:1006B00005C08FEF9FEF02C081E090E0DF91CF9106
:1006C0001F910F910895CF93DF93C1E5D5E0FE010F
:1006D00080E081938F5F8038E1F72CE333E041E0E5
:1006E00050E060E870E081E595E00E94870CE1E170
:1006F000F5E08991819385E0C138D807D1F7E1EC25
:10070000F5E0A1E4B5E081918D9385E0E13DF80746
:10071000D1F781E090E09093D2058093D105DF91ED
:10072000CF910895AF92BF92CF92DF92EF92FF9256
:100730000F931F93CF93DF93EC017B015A01690163
:100740008091D1059091D205892B11F40E94630309
:10075000B5016C0D7D1D600F711F072E000C880BFD
:10076000990B0E94C90A20E030E040E450E40E9466
:100770001F0A20E030E04FE753E40E941F0A20E008
:1007800030E04CE752E40E947E0B0E94910A77FF12
:1007900002C060E070E08B010F5E1A4FA701BE013E
:1007A000F80180810E948102BE016C5F7F4FA7012A
:1007B000F8018081DF91CF911F910F91FF90EF9011
:1007C000DF90CF90BF90AF900C948102FC018081AC
:1007D0004130510539F401C0440F6A95EAF7482BBE
:1007E0004083089521E030E001C0220F6A95EAF7C6
:1007F00020952823208308956115710581059105B1
:1008000059F0EFE9FFE03197F1F700C000006150C7
:10081000710981099109F0CF0895CF92DF92EF928B
:10082000FF920F931F934091D3055091D4058A01F5
:10083000052E000C220B330B060F171F281F391F24
:100840000130124021053105B8F49A01260F371FF7
:100850003093D4052093D3058901330F220B330B3A
:1008600068017901C61AD70AE80AF90AF601EB52BB
:10087000FA4F808190E002C08FEF9FEF1F910F91A0
:10088000FF90EF90DF90CF9008954F925F926F921C
:100890007F928F929F92AF92BF92EF92FF920F93AF
:1008A0001F93CF93DF93EC018B017A01FA0120852E
:1008B000318542855385FB016085718582859385ED
:1008C0000E94AE094B015C01F7012481358146810C
:1008D0005781F80164817581868197810E94AE09F4
:1008E0002B013C01F7012081318142815381F801C4
:1008F00060817181828193810E94AE0968837983CE
:100900008A839B834C825D826E827F8288869986F1
:10091000AA86BB86CE01DF91CF911F910F91FF90E8
:10092000EF90BF90AF909F908F907F906F905F906F
:100930004F9008958F929F92AF92BF92CF92DF9285
:10094000EF92FF920F931F93CF93DF93CDB7DEB754
:100950002C970FB6F894DEBF0FBECDBF8C01FA0105
:1009600080859185A285B385B058C480D580E68006
:10097000F780F7FAF094F7F8F09480809180A280E5
:10098000B380B7FAB094B7F8B09489829A82AB82F8
:10099000BC82CD82DE82EF82F88689879A87AB8718
:1009A000BC87AE014F5F5F4FC8010E944504C8017C
:1009B0002C960FB6F894DEBF0FBECDBFDF91CF915E
:1009C0001F910F91FF90EF90DF90CF90BF90AF906D
:1009D0009F908F9008954F925F926F927F928F9227
:1009E0009F92AF92BF92CF92DF92EF92FF920F93BE
:1009F0001F93CF93DF93CDB7DEB7A0970FB6F894D0
:100A0000DEBF0FBECDBFED86FE860F87188B298B0C
:100A10003A8B4B8B5C8B6D8B7E8B8F8B988F4501CC
:100A20005601AE014D5C5F4FBE01635F7F4FCE014B
:100A300001960E949A04CE01CF960E944B072B018B
:100A40003C0129813A814B815C8123966CAD7DAD5F
:100A50008EAD9FAD23970E947E0B6B017C012D8193
:100A60003E814F81588527966CAD7DAD8EAD9FAD93
:100A700027970E947E0B9B01AC01C701B6010E9423
:100A8000AE096B017C0129853A854B855C852B96E7
:100A90006CAD7DAD8EAD9FAD2B970E947E0B9B0103
:100AA000AC01C701B6010E94AE096B017C01CE0109
:100AB00001960E944B07698F7A8F8B8F9C8FA701BD
:100AC0009601C701B6010E947E0B6D8F7E8F8F8FBE
:100AD00098A3A5019401C501B4010E947E0B9B015E
:100AE000AC01698D7A8D8B8D9C8D0E94AD09A3011F
:100AF00092010E947E0B9B01AC016D8D7E8D8F8DCE
:100B000098A10E94AD094B015C0120E030E0A901F1
:100B10000E941A0A87FD0DC0C501B4010E94F10BA5
:100B2000A70196010E947E0BA30192010E941F0A59
:100B300004C060E070E080E89FEBA0960FB6F894E8
:100B4000DEBF0FBECDBFDF91CF911F910F91FF9000
:100B5000EF90DF90CF90BF90AF909F908F907F905D
:100B60006F905F904F9008952F923F924F925F92B7
:100B70006F927F928F929F92AF92BF92CF92DF92AD
:100B8000EF92FF920F931F93CF93DF93CDB7DEB712
:100B9000C054D1090FB6F894DEBF0FBECDBF1C0103
:100BA0004B0119821A821B821C821D821E821F82A7
:100BB0001886412C512C80E8682E8FEB782E4986C0
:100BC0005A866B867C862DB73EB7285131090FB601
:100BD000F8943EBF0FBE2DBFADB7BEB7119688E1EA
:100BE000FB0101900D928A95E1F7A12CB12CC12C4B
:100BF0009FE3D92EE980FA800B811C812D813E81F3
:100C00004F81588569857A858B859C850E94EB0488
:100C10000FB6F894DEBF0FBECDBF6B017C0120E0A4
:100C200030E0A9010E94790B18160CF0BDC01DA27E
:100C30001EA21FA218A619A61AA61BA61CA64DA680
:100C40005EA66FA678AAF40124893589468957895A
:100C5000C701B6010E947E0B2B013C01D4015096C6
:100C60002D913D914D915C915397C701B6010E9422
:100C70007E0B21966CAF7DAF8EAF9FAF2197A70102
:100C80009601F40164857585868597850E947E0BA3
:100C900069837A838B839C8321968CAD9DADAEADA9
:100CA000BFAD21978D839E83AF83B88749865A86CF
:100CB0006B867C86AE014F5F5F4FB401CE01C1965B
:100CC0000E944504AE014B5D5F4FBE016F5C7F4FDC
:100CD000CE0149960E949A048CE0FE017996DE01CD
:100CE0001D9601900D928A95E1F7CE010D960E9416
:100CF0004B070E94F10B6B017C019B01AC016D89DC
:100D00007E898F89988D0E941F0A2B013C01A701C3
:100D1000960169897A898B899C890E941F0A4B01F7
:100D20005C01A70196016D857E858F8598890E945B
:100D30001F0A20E030E040E85FE30E94AE0920E0B7
:100D400030E040E05FE30E947E0BD1016D937D9324
:100D50008D939C93139720E030E040E85FE3C5015A
:100D6000B4010E94AE0920E030E040E05FE30E9461
:100D70007E0BF101648375838683978320E030E0E6
:100D800040E85FE3C301B2010E94AE0920E030E019
:100D900040E05FE30E947E0BD10118966D937D9336
:100DA0008D939C931B975CC08CE0F4013C96DE0114
:100DB000119601900D928A95E1F7CE0101960E945D
:100DC0004B070E94F10B9B01AC016D817E818F81ED
:100DD00098850E941F0A20E030E040E85FE30E940F
:100DE000AE0920E030E040E05FE30E947E0B6B0143
:100DF0007C0120E030E040E05FE30E947E0B6D87E5
:100E00007E878F87988B23E333E343E35FE3C70158
:100E1000B6010E947E0B698B7A8B8B8B9C8BCD8A63
:100E2000DE8AEF8AF88EA701960160E070E080E824
:100E30009FE30E94AD09698F7A8F8B8F9C8F6D8F96
:100E40007E8F8F8F98A369A37AA38BA39CA3AE01F7
:100E5000435F5F4FBE01675E7F4FC1010E94450443
:100E6000C101C05CDF4F0FB6F894DEBF0FBECDBF2F
:100E7000DF91CF911F910F91FF90EF90DF90CF9076
:100E8000BF90AF909F908F907F906F905F904F90AA
:100E90003F902F9008954F925F926F927F928F9222
:100EA0009F92AF92BF92CF92DF92EF92FF92FC019E
:100EB000608171818281938184809580A680B780D2
:100EC000C084D184E284F3849B01AC010E947E0B38
:100ED0002B013C01A5019401C501B4010E947E0BC8
:100EE0009B01AC01C301B2010E94AE094B015C0140
:100EF000A7019601C701B6010E947E0B9B01AC01C0
:100F0000C501B4010E94AE09FF90EF90DF90CF9031
:100F1000BF90AF909F908F907F906F905F904F9019
:100F20000895CF93DF93CDB7DEB7C258D1090FB67E
:100F3000F894DEBF0FBECDBF47E06AE270E08BE2FF
:100F400090E00E943802EE24E39404E210E025E2EF
:100F500030E040E064E270E085E290E00E94A101B0
:100F60000E946303E1961CAE1DAE1EAE1FAEE1975C
:100F7000E5961CAE1DAE1EAE1FAEE597E9961CAE03
:100F80001DAE1EAE1FAEE99780E090E0A0E4BEE388
:100F9000A5968CAF9DAFAEAFBFAFA597A9961CAE7F
:100FA0001DAE1EAE1FAEA997AD961CAE1DAE1EAEF9
:100FB0001FAEAD977E0185E5E80EF11CD7011D92AD
:100FC0001D921D921C9213978DEC9CECACE4BEEB31
:100FD000F70184839583A683B783108611861286D2
:100FE000138619821A821B821C8280E090E0A0E89E
:100FF000BFEB8D839E83AF83B88719861A861B86C5
:101000001C8680E090E0A0ECBFE38DA39EA3AFA37D
:10101000B8A719A61AA61BA61CA61DA61EA61FA623
:1010200018AA21961CAE1DAE1EAE1FAE21972596A6
:101030001CAE1DAE1EAE1FAE259780E090E0A0E86E
:10104000BFE329968CAF9DAFAEAFBFAF2997AE017E
:10105000435C5F4FBE0163597F4FCE01C1960E9432
:101060009A04AE014B5D5F4FBE016F5C7F4FCE01B6
:1010700049960E949A04AE014F5F5F4FBE01675EC2
:101080007F4FCE01875B9F4F0E949A04A701BE014C
:101090006F597F4FCE0149960E94450420E030E011
:1010A00040E05FE369A17AA18BA19CA10E947E0B25
:1010B0004B015C0120E030E040E05FE36D8D7E8D10
:1010C0008F8D98A10E947E0B2B013C0120E030E027
:1010D00040E05FE3698D7A8D8B8D9C8D0E947E0B45
:1010E00069837A838B839C834D825E826F8278864C
:1010F00089869A86AB86BC86AE014F5F5F4FBE0184
:10110000675B7F4FCE01CD960E944504EB961FAEE4
:101110001EAEEB97C12CD12C212C312CE12CF12CC3
:10112000C6010D2C000CAA0BBB0BC158DF4F8883E6
:101130009983AA83BB83CF57D040C158DF4F6881C2
:1011400079818A819B81CF57D0400E94C90A4B0187
:101150005C01A1962CAD3DAD4EAD5FADA1970E9457
:101160007E0B2B013C016D962CAD3DAD4EAD5FADC0
:101170006D97C501B4010E947E0BEF966CAF7DAFF9
:101180008EAF9FAFEF97A501940169966CAD7DADD1
:101190008EAD9FAD69970E947E0B69837A838B83A6
:1011A0009C83EF968CAD9DADAEADBFADEF978D83BB
:1011B0009E83AF83B88749865A866B867C86B70143
:1011C0000F2C000C880B990B0E94C90A4B015C0183
:1011D000AD962CAD3DAD4EAD5FADAD970E947E0B93
:1011E0002B013C01A9962CAD3DAD4EAD5FADA9974D
:1011F000C501B4010E947E0BEF966CAF7DAF8EAF40
:101200009FAFEF97A5019401A5966CAD7DAD8EAD16
:101210009FADA5970E947E0B6DA37EA38FA398A779
:10122000EF968CAD9DADAEADBFADEF9789A79AA7F8
:10123000ABA7BCA74DA65EA66FA678AAAE014B5D74
:101240005F4FBE01635C7F4FCE0149960E9445040B
:10125000AE014F5F5F4FBE01675E7F4FCE01C1960B
:101260000E944504AE0143595F4FBE016F5C7F4F42
:10127000CE0185960E949A048CE0FE01E359FF4F4F
:10128000DE01119601900D928A95E1F78CE0FE0146
:10129000B596DE011D9601900D928A95E1F7BE018B
:1012A0006F5F7F4FCE0149960E94B40520E030E089
:1012B0004FE753E469A17AA18BA19CA10E947E0B08
:1012C0000E94910A2B013C0120E030E04FE753E4FB
:1012D0006D8D7E8D8F8D98A10E947E0B0E94910A4C
:1012E0004B015C0120E030E04FE753E4698D7A8DDB
:1012F0008B8D9C8D0E947E0B0E94910A820194012D
:10130000AB01EB966EAD7FADEB97C1010E949203EE
:101310009FEFE91AF90AA8E02A0E311CB0E1EB169A
:10132000F10409F00ACFEFEFCE1ADE0AEB968EAD8C
:101330009FADEB970696EB969FAF8EAFEB979AE03B
:10134000C916D10409F0E8CE0E941501AFE3BCE94B
:101350001197F1F700C00000F9CF5058BB27AA271A
:101360000E94C5090C943F0B0E94310B38F00E947B
:10137000380B20F039F49F3F19F426F40C942E0B0F
:101380000EF4E095E7FB0C94280BE92F0E94500B1C
:1013900058F3BA17620773078407950720F079F4AA
:1013A000A6F50C94720B0EF4E0950B2EBA2FA02D1F
:1013B0000B01B90190010C01CA01A0011124FF2702
:1013C000591B99F0593F50F4503E68F11A16F040FD
:1013D000A22F232F342F4427585FF3CF46953795FC
:1013E0002795A795F0405395C9F77EF41F16BA0BC1
:1013F000620B730B840BBAF09150A1F0FF0FBB1F6F
:10140000661F771F881FC2F70EC0BA0F621F731FB7
:10141000841F48F4879577956795B795F7959E3F14
:1014200008F0B0CF9395880F08F09927EE0F9795A5
:10143000879508950E94040B08F481E008950E94A6
:10144000330A0C943F0B0E94380B58F00E94310B6A
:1014500040F029F45F3F29F00C94280B51110C94B3
:10146000730B0C942E0B0E94500B68F39923B1F36D
:10147000552391F3951B550BBB27AA2762177307BA
:10148000840738F09F5F5F4F220F331F441FAA1F4E
:10149000A9F335D00E2E3AF0E0E832D0915050400A
:1014A000E695001CCAF72BD0FE2F29D0660F771FB8
:1014B000881FBB1F261737074807AB07B0E809F09E
:1014C000BB0B802DBF01FF2793585F4F3AF09E3F23
:1014D000510578F00C94280B0C94730B5F3FE4F3E8
:1014E000983ED4F3869577956795B795F7959F5F66
:1014F000C9F7880F911D9695879597F90895E1E0B2
:10150000660F771F881FBB1F621773078407BA0710
:1015100020F0621B730B840BBA0BEE1F88F7E0956B
:1015200008950E94980A6894B1110C94730B089561
:101530000E94580B88F09F5798F0B92F9927B75100
:10154000B0F0E1F0660F771F881F991F1AF0BA9567
:10155000C9F714C0B13091F00E94720BB1E0089548
:101560000C94720B672F782F8827B85F39F0B93F3A
:10157000CCF3869577956795B395D9F73EF490951A
:101580008095709561957F4F8F4F9F4F0895E89498
:1015900009C097FB3EF490958095709561957F4FBB
:1015A0008F4F9F4F9923A9F0F92F96E9BB27939569
:1015B000F695879577956795B795F111F8CFFAF479
:1015C000BB0F11F460FF1BC06F5F7F4F8F4F9F4FAA
:1015D00016C0882311F096E911C0772321F09EE808
:1015E000872F762F05C0662371F096E8862F70E06E
:1015F00060E02AF09A95660F771F881FDAF7880F48
:101600009695879597F90895990F0008550FAA0B9D
:10161000E0E8FEEF16161706E807F907C0F0121605
:101620001306E407F50798F0621B730B840B950B08
:1016300039F40A2661F0232B242B252B21F408955D
:101640000A2609F4A140A6958FEF811D811D0895FA
:1016500097F99F6780E870E060E008959FEF80EC65
:10166000089500240A941616170618060906089508
:1016700000240A9412161306140605060895092E6E
:101680000394000C11F4882352F0BB0F40F4BF2BDD
:1016900011F460FF04C06F5F7F4F8F4F9F4F08951D
:1016A00057FD9058440F551F59F05F3F71F0479513
:1016B000880F97FB991F61F09F3F79F087950895F8
:1016C000121613061406551FF2CF4695F1DF08C017
:1016D000161617061806991FF1CF86957105610534
:1016E00008940895E894BB2766277727CB0197F9DC
:1016F00008950E94040B08F48FEF08950E94910B47
:101700000C943F0B0E94310B38F00E94380B20F0F4
:10171000952311F00C94280B0C942E0B11240C948F
:10172000730B0E94500B70F3959FC1F3950F50E01F
:10173000551F629FF001729FBB27F00DB11D639F83
:10174000AA27F00DB11DAA1F649F6627B00DA11D29
:10175000661F829F2227B00DA11D621F739FB00DCF
:10176000A11D621F839FA00D611D221F749F33273F
:10177000A00D611D231F849F600D211D822F762FD8
:101780006A2F11249F5750409AF0F1F088234AF0B5
:10179000EE0FFF1FBB1F661F771F881F9150504021
:1017A000A9F79E3F510580F00C94280B0C94730B05
:1017B0005F3FE4F3983ED4F3869577956795B795A8
:1017C000F795E7959F5FC1F7FE2B880F911D9695C2
:1017D000879597F9089519F416F40C942E0B0C9430
:1017E000310C0E94580BB8F39923C9F3B6F39F57F5
:1017F000550B87FF0E943F0C0024A0E640EA9001B1
:1018000080585695979528F4805C660F771F881F3F
:1018100020F026173707480730F4621B730B840B40
:10182000202931294A2BA695179407942025312584
:101830004A2758F7660F771F881F20F026173707AB
:10184000480730F4620B730B840B200D311D411DD2
:10185000A09581F7B901842F9158880F96958795A7
:1018600008959F3F31F0915020F4879577956795C3
:10187000B795880F911D9695879597F90895915082
:101880005040660F771F881FD2F70895DC01FB01D7
:101890008C9190819D9381934150510914161506A6
:1018A000BCF30895A0E0B0E0E8E5FCE00C94490E3C
:1018B0007C016B01D42FC52F8901F90109956D2F8A
:1018C0007C2F97FF10C0C601F801099597FF02C051
:1018D000C60118C06D2F7C2FC701F801099597FD2F
:1018E0000FC0C7010FC0C601F801099518161906E7
:1018F0007CF36D2F7C2FC701F801099597FDF1CF7F
:101900008D2F9C2FCDB7DEB7E8E00C94650EAAE0D2
:10191000B0E0EDE8FCE00C943F0E8C017B015A87AF
:101920004987690129853A85200F311F3A83298328
:1019300037E0E316F10470F569807A8049855A85AD
:10194000E49E5001E59EB00CF49EB00C1124A00E54
:10195000B11E6A147B0408F07AC173010E151F05CD
:1019600028F089859A85680E791EF3CF4701E985AD
:10197000FA858E1A9F0AB701C401F6010995181657
:1019800019067CF749855A85B401C7010E94460CA7
:101990007401E4CFC7019695879529853A85829F82
:1019A0005001839FB00C929FB00C1124A00EB11E69
:1019B000A701415051095C834B8357E0E516F104C0
:1019C00009F44CC08B819C81829F3001839F700CF5
:1019D000929F700C1124600E711E99E2E916F104B9
:1019E000A8F1C70143E0969587954A95E1F7829F54
:1019F0004001839F900C929F900C11241401220CA3
:101A0000331CA801420D531DB801680D791D9601C4
:101A1000C8010E94520C2C01A501480D591D91943A
:101A2000819491089601B501C501880D991D0E9408
:101A3000520C5C01B301680D791D9601A301C3012D
:101A4000821993090E94520C3C0101C028019601A1
:101A5000A301B501C2010E94520C5C0149855A855F
:101A6000B501C8010E94460C69807A802B813C81B7
:101A700049855A85249FF001259FF00D349FF00D74
:101A80001124FE83ED835F01A00EB11E460D571D8C
:101A90005C834B83250113011A8219828B809C8001
:101AA00089859A85881A990AA814B90408F450C03F
:101AB000B801C401F601099518161906C4F1892B5D
:101AC00071F449855A85B401C1010E94460C89858B
:101AD0009A85280E391EE1E0F0E0FA83E9832B8134
:101AE0003C8149855A85240F351F3C832B83D6CFF3
:101AF000B801C501F6010995950149855A85241B50
:101B0000350B38872F8397FD16C0892B71F44985D3
:101B10005A85B201C5010E94460C29853A85421AB0
:101B2000530A41E050E05A834983AF80B884A81437
:101B3000B904F0F60DC049855A85B501C4010E946B
:101B4000460CAF80B88441E050E05A834983C7CF48
:101B500089819A81892B09F44FC06D807E80298507
:101B60003A85620E731E600E711E7401E218F3084E
:101B7000A101401B510BE416F5060CF4A701141645
:101B8000150634F4B401641B750BC8010E94460CA1
:101B9000A2014A195B095A01A30144195509898513
:101BA0009A85481B590BA416B50608F4A50114160E
:101BB000150634F4B301641B750BC4010E94460C76
:101BC000E985FA85EE15FF0548F4C701BF010E94BB
:101BD0002B0E9601AF01C8010E94870C29853A851A
:101BE0002A153B05A0F583010A191B09C501B90196
:101BF0000E942B0E7B0196CEE985FA85EE9E500160
:101C0000EF9EB00CFE9EB00C1124A00EB11E6A1403
:101C10007B04E8F473010E151F0528F089859A8569
:101C2000680E791EF4CF4701E985FA858E1A9F0A5E
:101C3000B701C401F6010995181619067CF7498504
:101C40005A85B401C7010E94460C7401E4CF2A965C
:101C5000E2E10C945B0EAA1BBB1B51E107C0AA1F5B
:101C6000BB1FA617B70710F0A61BB70B881F991F3D
:101C70005A95A9F780959095BC01CD0108952F92B2
:101C80003F924F925F926F927F928F929F92AF920C
:101C9000BF92CF92DF92EF92FF920F931F93CF9359
:101CA000DF93CDB7DEB7CA1BDB0B0FB6F894DEBFF0
:101CB0000FBECDBF09942A88398848885F846E8416
:101CC0007D848C849B84AA84B984C884DF80EE8060
:101CD000FD800C811B81AA81B981CE0FD11D0FB669
:101CE000F894DEBF0FBECDBFED010895F894FFCF8D
:021CF0002B00C7
:00000001FF
