:100000000C94F4000C9411010C9411010C94110146
:100010000C9411010C9411010C9411010C94110118
:100020000C9411010C9411010C9411010C94110108
:100030000C9411010C9411010C9411010C941101F8
:100040000C9411010C9411010C9411010C941101E8
:100050000C9411010C9411010C9411010C941101D8
:100060000C9411010C94110100000000000000002C
:100070000000000000000000000000000000000080
:100080000000000000000000000000000000000070
:100090000000000000000000000000000000000060
:1000A0000000000000000000000000000000000050
:1000B0000000000000000000000000000000000040
:1000C0000000000000000000000000222020550079
:1000D0000057575063672054215063656022000029
:1000E00021112024442052500002720000002100FF
:1000F0007000000010442110755570322270747128
:10010000707474705574407174707175707444407B
:100110007575707574700020200020214212400710
:100120000700124210746020255160257550353546
:100130003061116035553071317071311061556029
:100140005575507222704445205535501111705725
:1001500075507555502555207571106553603535AE
:100160005061743072222055557055522055775089
:10017000552550552220742170622260112440328E
:100180002230250000000070120000065560135553
:10019000300611604655600253604272200256429A
:1001A000113550020220020221153550222240054D
:1001B00075500355500255200355310655640251C0
:1001C000100614302722400555600552200557506F
:1001D00005225005564207417062126022222032E9
:1001E000423003600000000011241FBECFEFD8E0B2
:1001F000DEBFCDBF11E0A0E0B1E0E6E8FAE002C06A
:1002000005900D92AA31B107D9F725E0AAE1B1E036
:1002100001C01D92A932B207E1F70E944E030C946F
:1002200041050C9400000C9435010C9457010C947A
:100230009901CF93C82FAAE1B5E0ED91FC911197F8
:10024000208181E090E014960C9002C0880F991FE5
:100250000A94E2F78095822380830E945C028C2FAF
:100260000E945702CF910C946F0287FD1FC060342B
:10027000E8F4962F969596959695E82FF0E080E80D
:10028000989FE00DF11D1124E65EFE4F677081E03E
:1002900090E001C0880F6A95EAF7442319F0908135
:1002A000892B03C080959081892380830895CF9204
:1002B000DF92EF92FF920F931F93CF93DF930AE1A8
:1002C00011E0C0EBEE24E394F12C8C2F0E94190175
:1002D00080E00E94190180E10E941901E0911A0555
:1002E000F0911B052081C70100901E0502C0880FF8
:1002F000991F0A94E2F7822B80830E945C026801B6
:10030000D0E0F60181916F010E945702DF5FD03883
:10031000C1F70E946F02CF5F00581F4FC83BA9F67C
:10032000DF91CF911F910F91FF90EF90DF90CF90D1
:100330000895EAE1F1E0119285E0EA31F807D9F792
:100340000895EF920F931F93EAE1F5E09183808384
:100350007383628344833683258310870783E18612
:10036000DB015C9181E090E09C0101C0220F4A9585
:10037000EAF7252B2C93A781B0854C919C01018431
:1003800002C0220F331F0A94E2F7242B2C93A5817D
:10039000B6813C91AC01018402C0440F551F0A9400
:1003A000E2F7242F209523232C93AFE3BCE9119788
:1003B000F1F700C00000A581B6812C91018402C034
:1003C000880F991F0A94E2F7822B8C938EEA0E9481
:1003D000190185ED0E94190180E80E94190188EA3F
:1003E0000E9419018FE30E94190183ED0E941901F7
:1003F00080E00E94190180E40E9419018DE80E94AA
:10040000190184E10E94190180E20E94190180E033
:100410000E94190181EA0E94190188EC0E941901C9
:100420008AED0E94190182E10E94190181E80E946F
:1004300019018FEC0E94190189ED0E94190181EFC9
:100440000E9419018BED0E94190180E40E9419019C
:1004500084EA0E94190186EA0E9419018FEA0E942B
:1004600019010E9499011F910F91EF900C9457016F
:1004700024B1286224B92498229AFB01508121E0FA
:1004800030E0042E01C0220F0A94EAF7352F322BF8
:100490003083FC013081232B2083E4E2F5E091835B
:1004A000808373836283448381E58CBD08958EBD10
:1004B0000DB407FEFDCF0895A4E2B5E0ED91FC91E7
:1004C0001197208181E090E014960C9002C0880F73
:1004D000991F0A94E2F78095822380830895A4E20D
:1004E000B5E0ED91FC911197208181E090E01496A8
:1004F0000C9002C0880F991F0A94E2F7822B808328
:1005000008956F927F928F929F92AF92BF92CF92F7
:10051000DF92EF92FF920F931F93CF93DF9300D060
:100520001F92CDB7DEB75B014A0190E0FC01EE0FF0
:10053000FF1F8E0F9F1FFC01E859FF4FE491E983D5
:10054000FC01E759FF4FE491EA83FC01E659FF4FB4
:1005500084918B83E12CF12CF701F595E79581E0EF
:1005600090E08C0F9D1FE80FF91F0081E0FE0295BF
:100570000F70C12CD12C10E034016E0C7F1CA8012F
:100580000C2C02C0559547950A94E2F74170552707
:10059000B301C5018C0D9D1D0E9413019FEFC91A67
:1005A000D90A84E0C816D10451F79FEFE91AF90A75
:1005B00086E0E816F10481F60F900F900F90DF911E
:1005C000CF911F910F91FF90EF90DF90CF90BF9050
:1005D000AF909F908F907F906F900895EF92FF92D1
:1005E0000F931F93CF93DF93EC017B01BA01620F4E
:1005F000731F600F711F072E000C880B990B0E9450
:10060000480420E030E040E450E40E949E0320E0F3
:1006100030E04FE753E40E949E0320E030E048EAD8
:1006200051E40E94D4040E94100477FF02C060E0ED
:1006300070E0FB01EE5FFE4FA701BE018081DF91FC
:10064000CF911F910F91FF90EF900C948102FC01CC
:1006500080814130510539F401C0440F6A95EAF7B1
:10066000482B4083089521E030E001C0220F6A95B5
:10067000EAF72095282320830895611571058105E7
:10068000910559F0EFE9FFE03197F1F700C0000064
:100690006150710981099109F0CF089547E06AE23C
:1006A00070E08BE290E00E943802EE24E39404E2D2
:1006B00010E025E230E040E064E270E085E290E0A6
:1006C0000E94A101E12C80E2F82EC12CD12CC0E0C7
:1006D000D0E0CF37D10534F086E0C80ED11CC0E0A1
:1006E000D0E001C02496BE010D2E000C880B990BA2
:1006F0000E94480420E030E040E05CE30E94D40423
:1007000020E030E04FE753E40E94D4040E9410043C
:1007100004E610E024E630E0AB01B601CE010E9411
:10072000EE0291E0E91AF108A1F60E9415018FE3AB
:100730009CE90197F1F700C00000F9CF0E94B203D5
:100740000C949A040E94930458F00E948C0440F088
:1007500029F45F3F29F00C94830451110C94CE04CA
:100760000C9489040E94AB0468F39923B1F35523D8
:1007700091F3951B550BBB27AA27621773078407B4
:1007800038F09F5F5F4F220F331F441FAA1FA9F34A
:1007900035D00E2E3AF0E0E832D091505040E69538
:1007A000001CCAF72BD0FE2F29D0660F771F881F99
:1007B000BB1F261737074807AB07B0E809F0BB0B8C
:1007C000802DBF01FF2793585F4F3AF09E3F5105A0
:1007D00078F00C9483040C94CE045F3FE4F3983ECD
:1007E000D4F3869577956795B795F7959F5FC9F789
:1007F000880F911D9695879597F90895E1E0660F0A
:10080000771F881FBB1F621773078407BA0720F082
:10081000621B730B840BBA0BEE1F88F7E0950895EB
:100820000E9417046894B1110C94CE0408950E949C
:10083000B30488F09F5798F0B92F9927B751B0F0BB
:10084000E1F0660F771F881F991F1AF0BA95C9F754
:1008500014C0B13091F00E94CD04B1E008950C9421
:10086000CD04672F782F8827B85F39F0B93FCCF3D4
:10087000869577956795B395D9F73EF490958095D1
:10088000709561957F4F8F4F9F4F0895E89409C0F1
:1008900097FB3EF490958095709561957F4F8F4FB3
:1008A0009F4F9923A9F0F92F96E9BB279395F695C9
:1008B000879577956795B795F111F8CFFAF4BB0F47
:1008C00011F460FF1BC06F5F7F4F8F4F9F4F16C0AB
:1008D000882311F096E911C0772321F09EE8872F35
:1008E000762F05C0662371F096E8862F70E060E0F1
:1008F0002AF09A95660F771F881FDAF7880F96956A
:10090000879597F9089597F99F6780E870E060E010
:1009100008959FEF80EC089500240A941616170698
:1009200018060906089500240A94121613061406E0
:1009300005060895092E0394000C11F4882352F043
:10094000BB0F40F4BF2B11F460FF04C06F5F7F4FFB
:100950008F4F9F4F089557FD9058440F551F59F0E2
:100960005F3F71F04795880F97FB991F61F09F3F9C
:1009700079F087950895121613061406551FF2CFC5
:100980004695F1DF08C0161617061806991FF1CF15
:1009900086957105610508940895E894BB2766273C
:1009A0007727CB0197F908950E94E7040C949A04E5
:1009B0000E948C0438F00E94930420F0952311F0DB
:1009C0000C9483040C94890411240C94CE040E948A
:1009D000AB0470F3959FC1F3950F50E0551F629FD4
:1009E000F001729FBB27F00DB11D639FAA27F00D88
:1009F000B11DAA1F649F6627B00DA11D661F829FAF
:100A00002227B00DA11D621F739FB00DA11D621F93
:100A1000839FA00D611D221F749F3327A00D611DB0
:100A2000231F849F600D211D822F762F6A2F112492
:100A30009F5750409AF0F1F088234AF0EE0FFF1FC5
:100A4000BB1F661F771F881F91505040A9F79E3F1C
:100A5000510580F00C9483040C94CE045F3FE4F3C2
:100A6000983ED4F3869577956795B795F795E79572
:100A70009F5FC1F7FE2B880F911D9695879597F97B
:060A80000895F894FFCF79
:100A86002B005B5D7D7B29287C2F585551305824DF
:0A0A96004226384D5725234000008A
:00000001FF
