:100000000C94F4000C9411010C9411010C94110146
:100010000C9411010C9411010C9411010C94110118
:100020000C9411010C9411010C9411010C94110108
:100030000C9411010C9411010C9411010C941101F8
:100040000C9411010C9411010C9411010C941101E8
:100050000C9411010C9411010C9411010C941101D8
:100060000C9411010C94110100000000000000002C
:100070000000000000000000000000000000000080
:100080000000000000000000000000000000000070
:100090000000000000000000000000000000000060
:1000A0000000000000000000000000000000000050
:1000B0000000000000000000000000000000000040
:1000C0000000000000000000000000222020550079
:1000D0000057575063672054215063656022000029
:1000E00021112024442052500002720000002100FF
:1000F0007000000010442110755570322270747128
:10010000707474705574407174707175707444407B
:100110007575707574700020200020214212400710
:100120000700124210746020255160257550353546
:100130003061116035553071317071311061556029
:100140005575507222704445205535501111705725
:1001500075507555502555207571106553603535AE
:100160005061743072222055557055522055775089
:10017000552550552220742170622260112440328E
:100180002230250000000070120000065560135553
:10019000300611604655600253604272200256429A
:1001A000113550020220020221153550222240054D
:1001B00075500355500255200355310655640251C0
:1001C000100614302722400555600552200557506F
:1001D00005225005564207417062126022222032E9
:1001E000423003600000000011241FBECFEFD8E0B2
:1001F000DEBFCDBF11E0A0E0B1E0EAE4F0E202C072
:1002000005900D92AE30B107D9F728E0AEE0B1E02D
:1002100001C01D92A136B207E1F70E94CA080C94F2
:1002200023100C9400000C9435010C9457010C948D
:100230009901CF93C82FAEE0B1E0ED91FC911197F9
:10024000208181E090E014960C9002C0880F991FE5
:100250000A94E2F78095822380830E945C028C2FAF
:100260000E945702CF910C946F0287FD1FC060342B
:10027000E8F4962F969596959695E82FF0E080E80D
:10028000989FE00DF11D1124E85EFE4F677081E03C
:1002900090E001C0880F6A95EAF7442319F0908135
:1002A000892B03C080959081892380830895CF9204
:1002B000DF92EF92FF920F931F93CF93DF9308E1AA
:1002C00011E0C0EBEE24E394F12C8C2F0E94190175
:1002D00080E00E94190180E10E941901E0910E0165
:1002E000F0910F012081C7010090120102C0880F18
:1002F000991F0A94E2F7822B80830E945C026801B6
:10030000D0E0F60181916F010E945702DF5FD03883
:10031000C1F70E946F02CF5F00581F4FC83BA9F67C
:10032000DF91CF911F910F91FF90EF90DF90CF90D1
:100330000895E8E1F1E0119285E0E831F807D9F796
:100340000895EF920F931F93EEE0F1E09183808385
:100350007383628344833683258310870783E18612
:10036000DB015C9181E090E09C0101C0220F4A9585
:10037000EAF7252B2C93A781B0854C919C01018431
:1003800002C0220F331F0A94E2F7242B2C93A5817D
:10039000B6813C91AC01018402C0440F551F0A9400
:1003A000E2F7242F209523232C93AFE3BCE9119788
:1003B000F1F700C00000A581B6812C91018402C034
:1003C000880F991F0A94E2F7822B8C938EEA0E9481
:1003D000190185ED0E94190180E80E94190188EA3F
:1003E0000E9419018FE30E94190183ED0E941901F7
:1003F00080E00E94190180E40E9419018DE80E94AA
:10040000190184E10E94190180E20E94190180E033
:100410000E94190181EA0E94190188EC0E941901C9
:100420008AED0E94190182E10E94190181E80E946F
:1004300019018FEC0E94190189ED0E94190181EFC9
:100440000E9419018BED0E94190180E40E9419019C
:1004500084EA0E94190186EA0E9419018FEA0E942B
:1004600019010E9499011F910F91EF900C9457016F
:1004700024B1286224B92498229AFB01508121E0FA
:1004800030E0042E01C0220F0A94EAF7352F322BF8
:100490003083FC013081232B2083E8E1F5E0918358
:1004A000808373836283448381E58CBD08958EBD10
:1004B0000DB407FEFDCF0895A8E1B5E0ED91FC91E4
:1004C0001197208181E090E014960C9002C0880F73
:1004D000991F0A94E2F78095822380830895A8E10A
:1004E000B5E0ED91FC911197208181E090E01496A8
:1004F0000C9002C0880F991F0A94E2F7822B808328
:1005000008956F927F928F929F92AF92BF92CF92F7
:10051000DF92EF92FF920F931F93CF93DF9300D060
:100520001F92CDB7DEB75B014A0190E0FC01EE0FF0
:10053000FF1F8E0F9F1FFC01E859FF4FE491E983D5
:10054000FC01E759FF4FE491EA83FC01E659FF4FB4
:1005500084918B83E12CF12CF701F595E79581E0EF
:1005600090E08C0F9D1FE80FF91F0081E0FE0295BF
:100570000F70C12CD12C10E034016E0C7F1CA8012F
:100580000C2C02C0559547950A94E2F74170552707
:10059000B301C5018C0D9D1D0E9413019FEFC91A67
:1005A000D90A84E0C816D10451F79FEFE91AF90A75
:1005B00086E0E816F10481F60F900F900F90DF911E
:1005C000CF911F910F91FF90EF90DF90CF90BF9050
:1005D000AF909F908F907F906F900895CF93DF930F
:1005E00000D01F92CDB7DEB790E0FC01EE0FFF1FE9
:1005F0008E0F9F1FFC01E859FF4FE491E983FC0136
:10060000E759FF4FE491EA83FC01E659FF4F8491DB
:100610008B8340E050E080E090E0FA01F595E795AB
:1006200021E030E02C0F3D1FE20FF31F208140FF3F
:1006300022952F7060E070E030E0A1E0B0E0F901B9
:10064000062E02C0F595E7950A94E2F7E0FD02C098
:10065000A0E0B0E08A0F9B1F6F5F7F4F6430710591
:1006600061F74F5F5F4F46305105B9F60F900F901D
:100670000F90DF91CF9108950F931F93CF93DF9346
:10068000FC01D081FB01C0818D2F0E94EE028C0104
:100690008C2F0E94EE02081719075CF08017910753
:1006A0005CF08C2FCC0F990B8D1B9109D7FD939586
:1006B00005C08FEF9FEF02C081E090E0DF91CF9106
:1006C0001F910F910895CF93DF93CDE5D5E0FE0103
:1006D00080E081938F5F8038E1F72CE333E041E0E5
:1006E00050E060E870E08DE595E00E94340EEDE1A9
:1006F000F5E08991819385E0CD38D807D1F7EDEC0D
:10070000F5E0ADE4B5E081918D9385E0ED3DF8072E
:10071000D1F781E090E09093DE058093DD05DF91D5
:10072000CF910895AF92BF92CF92DF92EF92FF9256
:100730000F931F93CF93DF93EC017B015A01690163
:100740008091DD059091DE05892B11F40E946303F1
:10075000B5016C0D7D1D600F711F072E000C880BFD
:10076000990B0E94760C20E030E040E450E40E94B7
:10077000CC0B20E030E04FE753E40E94CC0B20E0AC
:1007800030E04CE752E40E942B0D0E943E0C77FFB4
:1007900002C060E070E08B01035E1A4FA701BE014A
:1007A000F80180810E948102BE016C5F7F4FA7012A
:1007B000F8018081DF91CF911F910F91FF90EF9011
:1007C000DF90CF90BF90AF900C948102FC018081AC
:1007D0004130510539F401C0440F6A95EAF7482BBE
:1007E0004083089521E030E001C0220F6A95EAF7C6
:1007F00020952823208308956115710581059105B1
:1008000059F0EFE9FFE03197F1F700C000006150C7
:10081000710981099109F0CF0895CF92DF92EF928B
:10082000FF920F931F934091DF055091E0058A01DD
:10083000052E000C220B330B060F171F281F391F24
:100840000138124021053105B0F49A01260F371FF7
:100850003093E0052093DF058901330F220B330B22
:1008600068017901C61AD70AE80AF90AD701C60150
:100870008F519A4F02C08FEF9FEF1F910F91FF9002
:10088000EF90DF90CF9008954F925F926F927F929A
:100890008F929F92AF92BF92EF92FF920F931F930E
:1008A000CF93DF93EC018B017A01FA01208531852A
:1008B00042855385FB0160857185828593850E9401
:1008C0005B0B4B015C01F701248135814681578127
:1008D000F80164817581868197810E945B0B2B01F1
:1008E0003C01F7012081318142815381F80160810F
:1008F0007181828193810E945B0B688379838A83F3
:100900009B834C825D826E827F8288869986AA86CE
:10091000BB86CE01DF91CF911F910F91FF90EF9099
:10092000BF90AF909F908F907F906F905F904F900F
:1009300008958F929F92AF92BF92CF92DF92EF92E3
:10094000FF920F931F93CF93DF93CDB7DEB72C9712
:100950000FB6F894DEBF0FBECDBF8C01FA018085C3
:100960009185A285B385B058C480D580E680F78094
:10097000F7FAF094F7F8F09480809180A280B38029
:10098000B7FAB094B7F8B09489829A82AB82BC82ED
:10099000CD82DE82EF82F88689879A87AB87BC8713
:1009A000AE014F5F5F4FC8010E944404C8012C96FE
:1009B0000FB6F894DEBF0FBECDBFDF91CF911F9170
:1009C0000F91FF90EF90DF90CF90BF90AF909F90EE
:1009D0008F900895AF92BF92CF92DF92EF92FF92E5
:1009E0000F931F93CF93DF93CDB7DEB7C154D109D7
:1009F0000FB6F894DEBF0FBECDBF8C017B016A013C
:100A00009E012F5F3F4F5901C9010E940908D6017D
:100A10002D913C91BF92AF928FE78F9380E88F9397
:100A20001F921F921F921F921F921F92EDB7FEB747
:100A300078970FB6F894FEBF0FBEEDBFADB7BEB747
:100A4000119688E1F70101900D928A95E1F7D9019D
:100A5000ED91FC91C60109950FB6F894DEBF0FBE6B
:100A6000CDBF8823B1F08DEC9CECACE4BEE3F80183
:100A700080839183A283B38380E090E0A0E8BFE30A
:100A800084839583A683B78380879187A287B38762
:100A90005EC08CE0F7013C96DE015E9601900D92FF
:100AA0008A95E1F7CE014E960E94BA050E949E0DEE
:100AB0009B01AC016AA17BA18CA19DA10E94CC0BE2
:100AC00020E030E040E85FE30E945B0B20E030E094
:100AD00040E05FE30E942B0D6B017C0120E030E0E1
:100AE00040E05FE30E942B0D6EAB7FAB88AF99AF08
:100AF00023E333E343E35FE3C701B6010E942B0D19
:100B00006AAF7BAF8CAF9DAF2296CCAEDDAEEEAEC2
:100B1000FFAE2297A701960160E070E080E89FE3B6
:100B20000E945A0B6AA77BA78CA79DA76EA77FA7D9
:100B300088AB99AB6AAB7BAB8CAB9DABAE014A5C2F
:100B40005F4FBE01665D7F4FC8010E944404C8012B
:100B5000CF5BDF4F0FB6F894DEBF0FBECDBFDF9186
:100B6000CF911F910F91FF90EF90DF90CF90BF90AA
:100B7000AF9008954F925F926F927F928F929F9263
:100B8000AF92BF92CF92DF92EF92FF92FC01608111
:100B900071818281938184809580A680B780C08492
:100BA000D184E284F3849B01AC010E942B0D2B01C4
:100BB0003C01A5019401C501B4010E942B0D9B01CC
:100BC000AC01C301B2010E945B0B4B015C01A701A8
:100BD0009601C701B6010E942B0D9B01AC01C50116
:100BE000B4010E945B0BFF90EF90DF90CF90BF901D
:100BF000AF909F908F907F906F905F904F900895EF
:100C00002F923F924F925F926F927F928F929F921C
:100C1000AF92BF92CF92DF92EF92FF920F931F930A
:100C2000CF93DF93CDB7DEB7E8970FB6F894DEBF6A
:100C30000FBECDBF5C01AF960EAD1FADAF971C01CF
:100C400082E0280E311CA101BE01635B7F4FCE0103
:100C500049960E949904CE01875A9F4F0E94BA0577
:100C60006DA37EA38FA398A76D968CAD9DADAEAD01
:100C7000BFAD6D978DA79EA7AFA7B8ABA1968CAD62
:100C80009DADAEADBFADA19789AB9AABABABBCABE5
:100C9000A5968CAD9DADAEADBFADA5978DAB9EAB12
:100CA000AFABB8AF298D3A8D4B8D5C8D6DA57EA510
:100CB0008FA598A90E942B0D2B013C012D8D3E8DF7
:100CC0004F8D58A169A97AA98BA99CA90E942B0DC7
:100CD0009B01AC01C301B2010E945B0B2B013C01E3
:100CE00029A13AA14BA15CA16DA97EA98FA998ADBC
:100CF0000E942B0D9B01AC01C301B2010E945B0B52
:100D00006B017C01CE0149960E94BA052B013C0182
:100D1000D5011E968D919D910D90BC91A02D89A716
:100D20009AA7ABA7BCA7A7019601C701B6010E946D
:100D30002B0D4B015C0129A53AA54BA55CA5CA0169
:100D4000B9010E942B0D9B01AC01C301B2010E94AD
:100D50005A0B2DA13EA14FA158A50E942B0D9B011E
:100D6000AC01C501B4010E945A0B4B015C0120E0AB
:100D700030E0A9010E94C70B87FD31C1C501B40154
:100D80000E949E0D4B015C019B01AC01C701B601A5
:100D900090580E945A0B2DA13EA14FA158A50E9428
:100DA000CC0B562E472E3C01A9962CAD3DAD4EAD39
:100DB0005FADA9970E94C70B87FD0DC0AD962CAD06
:100DC0003DAD4EAD5FADAD97652D742DC3010E9455
:100DD000260D181654F5A7019601C501B4010E940D
:100DE0005A0B2DA13EA14FA158A50E94CC0B6B011F
:100DF0007C01562E4D2C3C019B01AC01A9966CAD9B
:100E00007DAD8EAD9FADA9970E94260D18160CF4EE
:100E1000E6C09601A701AD966CAD7DAD8EAD9FADE0
:100E2000AD970E94C70B87FDDAC0852D942DD301A5
:100E3000F801808F918FA28FB38F2DA53EA54FA56E
:100E400058A9652D742DC3010E942B0D69837A83E7
:100E50008B839C8329A93AA94BA95CA9652D742D84
:100E6000C3010E942B0D6D837E838F8398872DA9EC
:100E70003EA94FA958AD652D742DC3010E942B0DBD
:100E800069877A878B879C87AE014F5F5F4FBE0172
:100E9000635B7F4FCE010D960E9444048CE0FE01FF
:100EA0003D96D80101900D928A95E1F7A101B80114
:100EB000CE0101960E94990429A53AA54BA55CA5EF
:100EC00069857A858B859C850E94CC0B6DA37EA35A
:100ED0008FA398A729A53AA54BA55CA56D817E8116
:100EE0008F8198850E94CC0B6B017C0129A53AA5C6
:100EF0004BA55CA569817A818B819C810E94CC0B7A
:100F00004B015C019B01AC016DA57EA58FA598A945
:100F10000E942B0D2B013C01A701960169A97AA91A
:100F20008BA99CA90E942B0D9B01AC01C301B201AE
:100F30000E945B0B2B013C012DA13EA14FA158A5A6
:100F40006DA97EA98FA998AD0E942B0D9B01AC01C4
:100F5000C301B2010E945B0B2B013C0120E030E099
:100F6000A9010E94C70B881F8827881FD8015C969B
:100F70008C9320E030E0A901C301B2010E94C70BAD
:100F800087FF0EC0F80184869586A686B786C08A3C
:100F9000D18AE28AF38A8DA19EA1AFA1B8A519C01A
:100FA000B7FAB094B7F8B094D8011C968D929D9280
:100FB000AD92BC921F97F7FAF094F7F8F094F8010D
:100FC000C08AD18AE28AF38A8DA19EA1AFA1B8A579
:100FD000B058848B958BA68BB78B81E001C080E0E5
:100FE000E8960FB6F894DEBF0FBECDBFDF91CF916C
:100FF0001F910F91FF90EF90DF90CF90BF90AF9037
:101000009F908F907F906F905F904F903F902F9028
:101010000895FC01108211821282138214821582BB
:1010200016821782108611861286138614861586FC
:1010300016861786108A118A128A138A148A158ACC
:10104000168A178A08953F924F925F926F927F920D
:101050008F929F92AF92BF92CF92DF92EF92FF92C8
:101060000F931F93CF93DF93CDB7DEB76D970FB676
:10107000F894DEBF0FBECDBF5C012A966FAC2A97F5
:101080002B965FAC2B972C964FAC2C972D963FACA4
:101090002D972E96CFAC2E972F969FAC2F976096BC
:1010A0008FAC609761967FAC61979E012F5F3F4F39
:1010B0007901C9010E94090800E010E0D12CD50196
:1010C00014968D919C911597081719070CF049C03B
:1010D0001296ED91FC911397C801880F991FE80FA4
:1010E000F91F80819181FC0140815181FF92EF9233
:1010F0007F928F929F92CF923F924F925F926F9288
:101100002DB73EB7285131090FB6F8943EBF0FBE38
:101110002DBFADB7BEB7119628E1FE01F196019043
:101120000D922A95E1F7DA01ED91FC9109950FB640
:10113000F894DEBF0FBECDBF882381F0C98C9A8C96
:101140008B8C7C8C8DE1F7016396AEADBFAD639760
:1011500001900D928A95E1F7DD24D3940F5F1F4F24
:10116000AECF8D2D6D960FB6F894DEBF0FBECDBFFE
:10117000DF91CF911F910F91FF90EF90DF90CF9073
:10118000BF90AF909F908F907F906F905F904F90A7
:101190003F900895CF93DF93CDB7DEB7CC59D109F7
:1011A0000FB6F894DEBF0FBECDBF47E06AE270E035
:1011B0008BE290E00E943802EE24E39404E210E017
:1011C00025E230E040E064E270E085E290E00E94D9
:1011D000A1010E946303C158DF4F188219821A824D
:1011E0001B82CF57D040CD57DF4F188219821A8209
:1011F0001B82C358D040C957DF4F188219821A8208
:101200001B82C758D04080E090E0A0E4BEE3E796A0
:101210008CAF9DAFAEAFBFAFE797EB961CAE1DAEE8
:101220001EAE1FAEEB97EF961CAE1DAE1EAE1FAEF0
:10123000EF978E0109591F4FD8011D921D921D92E3
:101240001C9213978DEC9CECACE4BEEBF80184830C
:101250009583A683B783108611861286138619821A
:101260001A821B821C82812C912C80E8A82E8FEB85
:10127000B82E8D829E82AF82B88619861A861B860A
:101280001C8680E090E0A0ECBFE38BA79CA7ADA7F5
:10129000BEA71FA618AA19AA1AAA1BAA1CAA1DAA89
:1012A0001EAA27961CAE1DAE1EAE1FAE27972B960C
:1012B0001CAE1DAE1EAE1FAE2B9780E090E0A0E8E6
:1012C000BFE32F968CAF9DAFAEAFBFAF2F97AE01F0
:1012D0004D5B5F4FBE0161587F4FCE01C7960E94A4
:1012E00099047E01B9E1EB0EF11CAE01455D5F4F43
:1012F000BE01695C7F4FC7010E949904AE014F5F38
:101300005F4FB701CE01855A9F4F0E949904A801F3
:10131000BE016D587F4FC7010E94440420E030E0B9
:1013200040E05FE369A17AA18BA19CA10E942B0DF3
:101330002B013C0120E030E040E05FE36D8D7E8DCD
:101340008F8D98A10E942B0DCF56DF4F6883798334
:101350008A839B83C159D04020E030E040E05FE3C6
:10136000698D7A8D8B8D9C8D0E942B0D69837A837C
:101370008B839C83CF56DF4F88819981AA81BB8163
:10138000C159D0408D839E83AF83B88749865A86E2
:101390006B867C86AE014F5F5F4FBE01655A7F4F03
:1013A000CE01815B9F4F0E94440486E091E0C557C7
:1013B000DF4F99838883CB58D040C157DF4F1982C4
:1013C0001882CF58D04060E071E080E090E00E9449
:1013D0000D04C357DF4F99838883CD58D0402CE04C
:1013E00031E03A8F298F1B8E1C8E1D8E1E8E1F8E14
:1013F00018A219A21AA28BA29CA2ADA2BEA240E082
:1014000050E060E07FE34FA358A769A77AA7C157D0
:10141000DF4F28813981CF58D040A901440F551F93
:10142000FC01E40FF51FF182E0822F5F3F4FC157AF
:10143000DF4F39832883CF58D040CF56DF4F1982F2
:101440001882C159D040C12CD12C212C312CE12C37
:10145000F12CC6010D2C000CAA0BBB0BC756DF4F9D
:1014600088839983AA83BB83C959D040C756DF4F6D
:10147000688179818A819B81C959D0400E94760C0C
:101480004B015C01E3962CAD3DAD4EAD5FADE397F6
:101490000E942B0D2B013C01AF962CAD3DAD4EAD06
:1014A0005FADAF97C501B4010E942B0DCB56DF4F46
:1014B000688379838A839B83C559D040A5019401B1
:1014C000AB966CAD7DAD8EAD9FADAB970E942B0DF5
:1014D00069837A838B839C83CB56DF4F8881998184
:1014E000AA81BB81C559D0408D839E83AF83B887C5
:1014F00049865A866B867C86B7010F2C000C880BB8
:10150000990B0E94760C4B015C01EF962CAD3DAD22
:101510004EAD5FADEF970E942B0D2B013C01EB967A
:101520002CAD3DAD4EAD5FADEB97C501B4010E9452
:101530002B0DCB56DF4F688379838A839B83C559F4
:10154000D040A5019401E7966CAD7DAD8EAD9FAD09
:10155000E7970E942B0D6FAB78AF89AF9AAFCB5650
:10156000DF4F88819981AA81BB81C559D0408BAF5B
:101570009CAFADAFBEAF23964CAE5DAE6EAE7FAE50
:101580002397AE01495C5F4FBE01615B7F4FCE0187
:101590008B960E944404AE014F5F5F4FBE01655DB4
:1015A0007F4FCE018D5B9F4F0E944404AE01415896
:1015B0005F4FBE016D5B7F4FCE01C7960E949904BD
:1015C0008CE0FE01E158FF4FDE01119601900D9273
:1015D0008A95E1F78CE0FE01F796DE011D960190F9
:1015E0000D928A95E1F7AE0145575F4FBE016F5FDF
:1015F0007F4FCE018B960E94EA0420E030E04FE757
:1016000053E46BA97CA98DA99EA90E942B0D0E9471
:101610003E0C2B013C0120E030E04FE753E46FA586
:1016200078A989A99AA90E942B0D0E943E0C4B0112
:101630005C0120E030E04FE753E46BA57CA58DA56D
:101640009EA50E942B0D0E943E0C82019401AB01CD
:10165000CF56DF4F68817981C159D040C1010E94C6
:1016600092039FEFE91AF90AA8E02A0E311CB0E1B3
:10167000EB16F10409F0FACEEFEFCE1ADE0ACF56E0
:10168000DF4F88819981C159D0400696CF56DF4FF0
:1016900099838883C159D0409AE0C916D10409F0D2
:1016A000D4CE0E941501AFE3BCE91197F1F700C059
:1016B0000000F9CF5058BB27AA270E94720B0C9448
:1016C000EC0C0E94DE0C38F00E94E50C20F039F49E
:1016D0009F3F19F426F40C94DB0C0EF4E095E7FB25
:1016E0000C94D50CE92F0E94FD0C58F3BA17620731
:1016F00073078407950720F079F4A6F50C941F0D65
:101700000EF4E0950B2EBA2FA02D0B01B90190011C
:101710000C01CA01A0011124FF27591B99F0593F60
:1017200050F4503E68F11A16F040A22F232F342FA8
:101730004427585FF3CF469537952795A795F040F6
:101740005395C9F77EF41F16BA0B620B730B840B0B
:10175000BAF09150A1F0FF0FBB1F661F771F881FC3
:10176000C2F70EC0BA0F621F731F841F48F487951B
:1017700077956795B795F7959E3F08F0B0CF93950D
:10178000880F08F09927EE0F9795879508950E9486
:10179000B10C08F481E008950E94E00B0C94EC0C6D
:1017A0000E94E50C58F00E94DE0C40F029F45F3FE7
:1017B00029F00C94D50C51110C94200D0C94DB0CD9
:1017C0000E94FD0C68F39923B1F3552391F3951B07
:1017D000550BBB27AA2762177307840738F09F5F52
:1017E0005F4F220F331F441FAA1FA9F335D00E2EBF
:1017F0003AF0E0E832D091505040E695001CCAF72C
:101800002BD0FE2F29D0660F771F881FBB1F2617EE
:1018100037074807AB07B0E809F0BB0B802DBF01C5
:10182000FF2793585F4F3AF09E3F510578F00C9494
:10183000D50C0C94200D5F3FE4F3983ED4F38695CD
:1018400077956795B795F7959F5FC9F7880F911DB5
:101850009695879597F90895E1E0660F771F881FA1
:10186000BB1F621773078407BA0720F0621B730B54
:10187000840BBA0BEE1F88F7E09508950E94450C83
:101880006894B1110C94200D08950E94050D88F004
:101890009F5798F0B92F9927B751B0F0E1F0660F34
:1018A000771F881F991F1AF0BA95C9F714C0B13075
:1018B00091F00E941F0DB1E008950C941F0D672F49
:1018C000782F8827B85F39F0B93FCCF386957795A4
:1018D0006795B395D9F73EF490958095709561958D
:1018E0007F4F8F4F9F4F0895E89409C097FB3EF4B8
:1018F00090958095709561957F4F8F4F9F4F99235D
:10190000A9F0F92F96E9BB279395F69587957795DA
:101910006795B795F111F8CFFAF4BB0F11F460FF9A
:101920001BC06F5F7F4F8F4F9F4F16C0882311F0F2
:1019300096E911C0772321F09EE8872F762F05C006
:10194000662371F096E8862F70E060E02AF09A95A1
:10195000660F771F881FDAF7880F9695879597F996
:101960000895990F0008550FAA0BE0E8FEEF161630
:101970001706E807F907C0F012161306E407F50783
:1019800098F0621B730B840B950B39F40A2661F0F7
:10199000232B242B252B21F408950A2609F4A1409A
:1019A000A6958FEF811D811D089597F99F6780E8A7
:1019B00070E060E008959FEF80EC089500240A94A1
:1019C0001616170618060906089500240A9412161A
:1019D0001306140605060895092E0394000C11F44D
:1019E000882352F0BB0F40F4BF2B11F460FF04C0FA
:1019F0006F5F7F4F8F4F9F4F089557FD9058440F53
:101A0000551F59F05F3F71F04795880F97FB991F5D
:101A100061F09F3F79F0879508951216130614061A
:101A2000551FF2CF4695F1DF08C0161617061806A7
:101A3000991FF1CF86957105610508940895E89482
:101A4000BB2766277727CB0197F908950E94B10C31
:101A500008F48FEF08950E943E0D0C94EC0C0E9448
:101A6000DE0C38F00E94E50C20F0952311F00C9468
:101A7000D50C0C94DB0C11240C94200D0E94FD0C51
:101A800070F3959FC1F3950F50E0551F629FF001D1
:101A9000729FBB27F00DB11D639FAA27F00DB11DEA
:101AA000AA1F649F6627B00DA11D661F829F222773
:101AB000B00DA11D621F739FB00DA11D621F839FFA
:101AC000A00D611D221F749F3327A00D611D231FD0
:101AD000849F600D211D822F762F6A2F11249F571E
:101AE00050409AF0F1F088234AF0EE0FFF1FBB1F21
:101AF000661F771F881F91505040A9F79E3F5105E0
:101B000080F00C94D50C0C94200D5F3FE4F3983ECC
:101B1000D4F3869577956795B795F795E7959F5F89
:101B2000C1F7FE2B880F911D9695879597F908951B
:101B300019F416F40C94DB0C0C94DE0D0E94050DC8
:101B4000B8F39923C9F3B6F39F57550B87FF0E944B
:101B5000EC0D0024A0E640EA900180585695979538
:101B600028F4805C660F771F881F20F02617370740
:101B7000480730F4621B730B840B202931294A2B50
:101B8000A69517940794202531254A2758F7660F04
:101B9000771F881F20F026173707480730F4620B9D
:101BA000730B840B200D311D411DA09581F7B901E8
:101BB000842F9158880F9695879508959F3F31F00F
:101BC000915020F4879577956795B795880F911D6B
:101BD0009695879597F9089591505040660F771F15
:101BE000881FD2F70895DC01FB018C9190819D93B1
:101BF00081934150510914161506BCF30895A0E0D5
:101C0000B0E0E5E0FEE00C94F60F7C016B01D42F10
:101C1000C52F8901F90109956D2F7C2F97FF10C001
:101C2000C601F801099597FF02C0C60118C06D2FC3
:101C30007C2FC701F801099597FD0FC0C7010FC0A0
:101C4000C601F8010995181619067CF36D2F7C2F33
:101C5000C701F801099597FDF1CF8D2F9C2FCDB7C6
:101C6000DEB7E8E00C941210AAE0B0E0EAE3FEE090
:101C70000C94EC0F8C017B015A87498769012985F7
:101C80003A85200F311F3A83298337E0E316F104A8
:101C900070F569807A8049855A85E49E5001E59EF9
:101CA000B00CF49EB00C1124A00EB11E6A147B047B
:101CB00008F07AC173010E151F0528F089859A85F1
:101CC000680E791EF3CF4701E985FA858E1A9F0ABF
:101CD000B701C401F6010995181619067CF7498564
:101CE0005A85B401C7010E94F30D7401E4CFC70106
:101CF0009695879529853A85829F5001839FB00CE0
:101D0000929FB00C1124A00EB11EA70141505109A1
:101D10005C834B8357E0E516F10409F44CC08B81DA
:101D20009C81829F3001839F700C929F700C1124C4
:101D3000600E711E99E2E916F104A8F1C70143E0B3
:101D4000969587954A95E1F7829F4001839F900C75
:101D5000929F900C11241401220C331CA801420DF7
:101D6000531DB801680D791D9601C8010E94FF0D31
:101D70002C01A501480D591D91948194910896015B
:101D8000B501C501880D991D0E94FF0D5C01B301CD
:101D9000680D791D9601A301C301821993090E9460
:101DA000FF0D3C0101C028019601A301B501C2014C
:101DB0000E94FF0D5C0149855A85B501C8010E944A
:101DC000F30D69807A802B813C8149855A85249F57
:101DD000F001259FF00D349FF00D1124FE83ED835B
:101DE0005F01A00EB11E460D571D5C834B8325017C
:101DF00013011A8219828B809C8089859A85881AA2
:101E0000990AA814B90408F450C0B801C401F60135
:101E1000099518161906C4F1892B71F449855A855C
:101E2000B401C1010E94F30D89859A85280E391EDF
:101E3000E1E0F0E0FA83E9832B813C8149855A8512
:101E4000240F351F3C832B83D6CFB801C501F60183
:101E50000995950149855A85241B350B38872F83B1
:101E600097FD16C0892B71F449855A85B201C501C9
:101E70000E94F30D29853A85421A530A41E050E049
:101E80005A834983AF80B884A814B904F0F60DC012
:101E900049855A85B501C4010E94F30DAF80B8840D
:101EA00041E050E05A834983C7CF89819A81892BC9
:101EB00009F44FC06D807E8029853A85620E731EBD
:101EC000600E711E7401E218F308A101401B510B52
:101ED000E416F5060CF4A7011416150634F4B40143
:101EE000641B750BC8010E94F30DA2014A195B091E
:101EF0005A01A3014419550989859A85481B590B34
:101F0000A416B50608F4A5011416150634F4B30199
:101F1000641B750BC4010E94F30DE985FA85EE156B
:101F2000FF0548F4C701BF010E94D80F9601AF0119
:101F3000C8010E94340E29853A852A153B05A0F573
:101F400083010A191B09C501B9010E94D80F7B0141
:101F500096CEE985FA85EE9E5001EF9EB00CFE9E6E
:101F6000B00C1124A00EB11E6A147B04E8F47301B6
:101F70000E151F0528F089859A85680E791EF4CF05
:101F80004701E985FA858E1A9F0AB701C401F60157
:101F90000995181619067CF749855A85B401C701B9
:101FA0000E94F30D7401E4CF2A96E2E10C9408102C
:101FB000AA1BBB1B51E107C0AA1FBB1FA617B7076F
:101FC00010F0A61BB70B881F991F5A95A9F780958B
:101FD0009095BC01CD0108952F923F924F925F9250
:101FE0006F927F928F929F92AF92BF92CF92DF9229
:101FF000EF92FF920F931F93CF93DF93CDB7DEB78E
:10200000CA1BDB0B0FB6F894DEBF0FBECDBF099421
:102010002A88398848885F846E847D848C849B8478
:10202000AA84B984C884DF80EE80FD800C811B8186
:10203000AA81B981CE0FD11D0FB6F894DEBF0FBEB5
:0A204000CDBFED010895F894FFCF25
:0E204A002B000000000023080000000000062C
:00000001FF
